{
	"contracts/MarketPlace.sol": {
		"MarketPlace": {
			"abi": [
				{
					"inputs": [
						{
							"internalType": "uint256",
							"name": "_feePercent",
							"type": "uint256"
						}
					],
					"stateMutability": "nonpayable",
					"type": "constructor"
				},
				{
					"anonymous": false,
					"inputs": [
						{
							"indexed": false,
							"internalType": "uint256",
							"name": "itemId",
							"type": "uint256"
						},
						{
							"indexed": true,
							"internalType": "address",
							"name": "nft",
							"type": "address"
						},
						{
							"indexed": false,
							"internalType": "uint256",
							"name": "tokenId",
							"type": "uint256"
						},
						{
							"indexed": false,
							"internalType": "uint256",
							"name": "price",
							"type": "uint256"
						},
						{
							"indexed": true,
							"internalType": "address",
							"name": "seller",
							"type": "address"
						},
						{
							"indexed": true,
							"internalType": "address",
							"name": "buyer",
							"type": "address"
						}
					],
					"name": "Bought",
					"type": "event"
				},
				{
					"anonymous": false,
					"inputs": [
						{
							"indexed": false,
							"internalType": "uint256",
							"name": "itemId",
							"type": "uint256"
						},
						{
							"indexed": true,
							"internalType": "address",
							"name": "nft",
							"type": "address"
						},
						{
							"indexed": false,
							"internalType": "uint256",
							"name": "tokenId",
							"type": "uint256"
						},
						{
							"indexed": false,
							"internalType": "uint256",
							"name": "price",
							"type": "uint256"
						},
						{
							"indexed": true,
							"internalType": "address",
							"name": "seller",
							"type": "address"
						}
					],
					"name": "Offered",
					"type": "event"
				},
				{
					"inputs": [],
					"name": "feeAccount",
					"outputs": [
						{
							"internalType": "address payable",
							"name": "",
							"type": "address"
						}
					],
					"stateMutability": "view",
					"type": "function"
				},
				{
					"inputs": [],
					"name": "feePercent",
					"outputs": [
						{
							"internalType": "uint256",
							"name": "",
							"type": "uint256"
						}
					],
					"stateMutability": "view",
					"type": "function"
				},
				{
					"inputs": [
						{
							"internalType": "uint256",
							"name": "_itemId",
							"type": "uint256"
						}
					],
					"name": "getTotalPrice",
					"outputs": [
						{
							"internalType": "uint256",
							"name": "",
							"type": "uint256"
						}
					],
					"stateMutability": "view",
					"type": "function"
				},
				{
					"inputs": [],
					"name": "itemCount",
					"outputs": [
						{
							"internalType": "uint256",
							"name": "",
							"type": "uint256"
						}
					],
					"stateMutability": "view",
					"type": "function"
				},
				{
					"inputs": [
						{
							"internalType": "uint256",
							"name": "",
							"type": "uint256"
						}
					],
					"name": "items",
					"outputs": [
						{
							"internalType": "uint256",
							"name": "itemId",
							"type": "uint256"
						},
						{
							"internalType": "contract IERC721",
							"name": "nft",
							"type": "address"
						},
						{
							"internalType": "uint256",
							"name": "tokenId",
							"type": "uint256"
						},
						{
							"internalType": "uint256",
							"name": "price",
							"type": "uint256"
						},
						{
							"internalType": "address payable",
							"name": "seller",
							"type": "address"
						},
						{
							"internalType": "bool",
							"name": "sold",
							"type": "bool"
						}
					],
					"stateMutability": "view",
					"type": "function"
				},
				{
					"inputs": [
						{
							"internalType": "contract IERC721",
							"name": "_nft",
							"type": "address"
						},
						{
							"internalType": "uint256",
							"name": "_tokenId",
							"type": "uint256"
						},
						{
							"internalType": "uint256",
							"name": "_price",
							"type": "uint256"
						}
					],
					"name": "makeItem",
					"outputs": [],
					"stateMutability": "nonpayable",
					"type": "function"
				},
				{
					"inputs": [
						{
							"internalType": "uint256",
							"name": "_itemId",
							"type": "uint256"
						}
					],
					"name": "purchaseItem",
					"outputs": [],
					"stateMutability": "payable",
					"type": "function"
				}
			],
			"devdoc": {
				"kind": "dev",
				"methods": {},
				"version": 1
			},
			"evm": {
				"assembly": "    /* \"contracts/MarketPlace.sol\":160:2326  contract MarketPlace is ReentrancyGuard {... */\n  mstore(0x40, 0xc0)\n    /* \"contracts/MarketPlace.sol\":852:965  constructor(uint _feePercent) {... */\n  callvalue\n  dup1\n  iszero\n  tag_1\n  jumpi\n  0x00\n  dup1\n  revert\ntag_1:\n  pop\n  mload(0x40)\n  sub(codesize, bytecodeSize)\n  dup1\n  bytecodeSize\n  dup4\n  codecopy\n  dup2\n  dup2\n  add\n  0x40\n  mstore\n  dup2\n  add\n  swap1\n  tag_2\n  swap2\n  swap1\n  tag_3\n  jump\t// in\ntag_2:\n    /* \"@openzeppelin/contracts@4.5.0/security/ReentrancyGuard.sol\":1701:1702  1 */\n  0x01\n    /* \"@openzeppelin/contracts@4.5.0/security/ReentrancyGuard.sol\":1806:1813  _status */\n  0x00\n    /* \"@openzeppelin/contracts@4.5.0/security/ReentrancyGuard.sol\":1806:1828  _status = _NOT_ENTERED */\n  dup2\n  swap1\n  sstore\n  pop\n    /* \"contracts/MarketPlace.sol\":913:923  msg.sender */\n  caller\n    /* \"contracts/MarketPlace.sol\":892:924  feeAccount = payable(msg.sender) */\n  0xffffffffffffffffffffffffffffffffffffffff\n  and\n  0x80\n  dup2\n  0xffffffffffffffffffffffffffffffffffffffff\n  and\n  0x60\n  shl\n  dup2\n  mstore\n  pop\n  pop\n    /* \"contracts/MarketPlace.sol\":947:958  _feePercent */\n  dup1\n    /* \"contracts/MarketPlace.sol\":934:958  feePercent = _feePercent */\n  0xa0\n  dup2\n  dup2\n  mstore\n  pop\n  pop\n    /* \"contracts/MarketPlace.sol\":852:965  constructor(uint _feePercent) {... */\n  pop\n    /* \"contracts/MarketPlace.sol\":160:2326  contract MarketPlace is ReentrancyGuard {... */\n  jump(tag_8)\n    /* \"#utility.yul\":7:150   */\ntag_10:\n    /* \"#utility.yul\":64:69   */\n  0x00\n    /* \"#utility.yul\":95:101   */\n  dup2\n    /* \"#utility.yul\":89:102   */\n  mload\n    /* \"#utility.yul\":80:102   */\n  swap1\n  pop\n    /* \"#utility.yul\":111:144   */\n  tag_12\n    /* \"#utility.yul\":138:143   */\n  dup2\n    /* \"#utility.yul\":111:144   */\n  tag_13\n  jump\t// in\ntag_12:\n    /* \"#utility.yul\":70:150   */\n  swap3\n  swap2\n  pop\n  pop\n  jump\t// out\n    /* \"#utility.yul\":156:440   */\ntag_3:\n    /* \"#utility.yul\":226:232   */\n  0x00\n    /* \"#utility.yul\":275:277   */\n  0x20\n    /* \"#utility.yul\":263:272   */\n  dup3\n    /* \"#utility.yul\":254:261   */\n  dup5\n    /* \"#utility.yul\":250:273   */\n  sub\n    /* \"#utility.yul\":246:278   */\n  slt\n    /* \"#utility.yul\":243:245   */\n  iszero\n  tag_15\n  jumpi\n    /* \"#utility.yul\":291:292   */\n  0x00\n    /* \"#utility.yul\":288:289   */\n  dup1\n    /* \"#utility.yul\":281:293   */\n  revert\n    /* \"#utility.yul\":243:245   */\ntag_15:\n    /* \"#utility.yul\":334:335   */\n  0x00\n    /* \"#utility.yul\":359:423   */\n  tag_16\n    /* \"#utility.yul\":415:422   */\n  dup5\n    /* \"#utility.yul\":406:412   */\n  dup3\n    /* \"#utility.yul\":395:404   */\n  dup6\n    /* \"#utility.yul\":391:413   */\n  add\n    /* \"#utility.yul\":359:423   */\n  tag_10\n  jump\t// in\ntag_16:\n    /* \"#utility.yul\":349:423   */\n  swap2\n  pop\n    /* \"#utility.yul\":305:433   */\n  pop\n    /* \"#utility.yul\":233:440   */\n  swap3\n  swap2\n  pop\n  pop\n  jump\t// out\n    /* \"#utility.yul\":446:523   */\ntag_17:\n    /* \"#utility.yul\":483:490   */\n  0x00\n    /* \"#utility.yul\":512:517   */\n  dup2\n    /* \"#utility.yul\":501:517   */\n  swap1\n  pop\n    /* \"#utility.yul\":491:523   */\n  swap2\n  swap1\n  pop\n  jump\t// out\n    /* \"#utility.yul\":529:651   */\ntag_13:\n    /* \"#utility.yul\":602:626   */\n  tag_20\n    /* \"#utility.yul\":620:625   */\n  dup2\n    /* \"#utility.yul\":602:626   */\n  tag_17\n  jump\t// in\ntag_20:\n    /* \"#utility.yul\":595:600   */\n  dup2\n    /* \"#utility.yul\":592:627   */\n  eq\n    /* \"#utility.yul\":582:584   */\n  tag_21\n  jumpi\n    /* \"#utility.yul\":641:642   */\n  0x00\n    /* \"#utility.yul\":638:639   */\n  dup1\n    /* \"#utility.yul\":631:643   */\n  revert\n    /* \"#utility.yul\":582:584   */\ntag_21:\n    /* \"#utility.yul\":572:651   */\n  pop\n  jump\t// out\n    /* \"contracts/MarketPlace.sol\":160:2326  contract MarketPlace is ReentrancyGuard {... */\ntag_8:\n  shr(0x60, mload(0x80))\n  mload(0xa0)\n  codecopy(0x00, dataOffset(sub_0), dataSize(sub_0))\n  0x00\n  assignImmutable(\"0xca1c98d2cee18ab5da51a9df7bbf45ca91ab83c708e48aed82f5115320306ab4\")\n  0x00\n  assignImmutable(\"0x9abd569a0444be7ce52d46a7fb79009940c0c0442116f15017290ff13cb4450c\")\n  return(0x00, dataSize(sub_0))\nstop\n\nsub_0: assembly {\n        /* \"contracts/MarketPlace.sol\":160:2326  contract MarketPlace is ReentrancyGuard {... */\n      mstore(0x40, 0x80)\n      jumpi(tag_1, lt(calldatasize, 0x04))\n      shr(0xe0, calldataload(0x00))\n      dup1\n      0xbfb231d2\n      gt\n      tag_9\n      jumpi\n      dup1\n      0xbfb231d2\n      eq\n      tag_5\n      jumpi\n      dup1\n      0xca7dd375\n      eq\n      tag_6\n      jumpi\n      dup1\n      0xd38ea5bf\n      eq\n      tag_7\n      jumpi\n      dup1\n      0xfa00afc7\n      eq\n      tag_8\n      jumpi\n      jump(tag_1)\n    tag_9:\n      dup1\n      0x65e17c9d\n      eq\n      tag_2\n      jumpi\n      dup1\n      0x6bfb0d01\n      eq\n      tag_3\n      jumpi\n      dup1\n      0x7fd6f15c\n      eq\n      tag_4\n      jumpi\n    tag_1:\n      0x00\n      dup1\n      revert\n        /* \"contracts/MarketPlace.sol\":206:249  address payable public immutable feeAccount */\n    tag_2:\n      callvalue\n      dup1\n      iszero\n      tag_10\n      jumpi\n      0x00\n      dup1\n      revert\n    tag_10:\n      pop\n      tag_11\n      tag_12\n      jump\t// in\n    tag_11:\n      mload(0x40)\n      tag_13\n      swap2\n      swap1\n      tag_14\n      jump\t// in\n    tag_13:\n      mload(0x40)\n      dup1\n      swap2\n      sub\n      swap1\n      return\n        /* \"contracts/MarketPlace.sol\":293:314  uint public itemCount */\n    tag_3:\n      callvalue\n      dup1\n      iszero\n      tag_15\n      jumpi\n      0x00\n      dup1\n      revert\n    tag_15:\n      pop\n      tag_16\n      tag_17\n      jump\t// in\n    tag_16:\n      mload(0x40)\n      tag_18\n      swap2\n      swap1\n      tag_19\n      jump\t// in\n    tag_18:\n      mload(0x40)\n      dup1\n      swap2\n      sub\n      swap1\n      return\n        /* \"contracts/MarketPlace.sol\":255:287  uint public immutable feePercent */\n    tag_4:\n      callvalue\n      dup1\n      iszero\n      tag_20\n      jumpi\n      0x00\n      dup1\n      revert\n    tag_20:\n      pop\n      tag_21\n      tag_22\n      jump\t// in\n    tag_21:\n      mload(0x40)\n      tag_23\n      swap2\n      swap1\n      tag_19\n      jump\t// in\n    tag_23:\n      mload(0x40)\n      dup1\n      swap2\n      sub\n      swap1\n      return\n        /* \"contracts/MarketPlace.sol\":480:514  mapping(uint => Item) public items */\n    tag_5:\n      callvalue\n      dup1\n      iszero\n      tag_24\n      jumpi\n      0x00\n      dup1\n      revert\n    tag_24:\n      pop\n      tag_25\n      0x04\n      dup1\n      calldatasize\n      sub\n      dup2\n      add\n      swap1\n      tag_26\n      swap2\n      swap1\n      tag_27\n      jump\t// in\n    tag_26:\n      tag_28\n      jump\t// in\n    tag_25:\n      mload(0x40)\n      tag_29\n      swap7\n      swap6\n      swap5\n      swap4\n      swap3\n      swap2\n      swap1\n      tag_30\n      jump\t// in\n    tag_29:\n      mload(0x40)\n      dup1\n      swap2\n      sub\n      swap1\n      return\n        /* \"contracts/MarketPlace.sol\":2187:2322  function getTotalPrice(uint _itemId) view public returns (uint) {... */\n    tag_6:\n      callvalue\n      dup1\n      iszero\n      tag_31\n      jumpi\n      0x00\n      dup1\n      revert\n    tag_31:\n      pop\n      tag_32\n      0x04\n      dup1\n      calldatasize\n      sub\n      dup2\n      add\n      swap1\n      tag_33\n      swap2\n      swap1\n      tag_27\n      jump\t// in\n    tag_33:\n      tag_34\n      jump\t// in\n    tag_32:\n      mload(0x40)\n      tag_35\n      swap2\n      swap1\n      tag_19\n      jump\t// in\n    tag_35:\n      mload(0x40)\n      dup1\n      swap2\n      sub\n      swap1\n      return\n        /* \"contracts/MarketPlace.sol\":1508:2181  function purchaseItem(uint _itemId) external payable nonReentrant {... */\n    tag_7:\n      tag_36\n      0x04\n      dup1\n      calldatasize\n      sub\n      dup2\n      add\n      swap1\n      tag_37\n      swap2\n      swap1\n      tag_27\n      jump\t// in\n    tag_37:\n      tag_38\n      jump\t// in\n    tag_36:\n      stop\n        /* \"contracts/MarketPlace.sol\":971:1502  function makeItem(IERC721 _nft, uint _tokenId, uint _price) external nonReentrant {... */\n    tag_8:\n      callvalue\n      dup1\n      iszero\n      tag_39\n      jumpi\n      0x00\n      dup1\n      revert\n    tag_39:\n      pop\n      tag_40\n      0x04\n      dup1\n      calldatasize\n      sub\n      dup2\n      add\n      swap1\n      tag_41\n      swap2\n      swap1\n      tag_42\n      jump\t// in\n    tag_41:\n      tag_43\n      jump\t// in\n    tag_40:\n      stop\n        /* \"contracts/MarketPlace.sol\":206:249  address payable public immutable feeAccount */\n    tag_12:\n      immutable(\"0x9abd569a0444be7ce52d46a7fb79009940c0c0442116f15017290ff13cb4450c\")\n      dup2\n      jump\t// out\n        /* \"contracts/MarketPlace.sol\":293:314  uint public itemCount */\n    tag_17:\n      sload(0x01)\n      dup2\n      jump\t// out\n        /* \"contracts/MarketPlace.sol\":255:287  uint public immutable feePercent */\n    tag_22:\n      immutable(\"0xca1c98d2cee18ab5da51a9df7bbf45ca91ab83c708e48aed82f5115320306ab4\")\n      dup2\n      jump\t// out\n        /* \"contracts/MarketPlace.sol\":480:514  mapping(uint => Item) public items */\n    tag_28:\n      mstore(0x20, 0x02)\n      dup1\n      0x00\n      mstore\n      keccak256(0x00, 0x40)\n      0x00\n      swap2\n      pop\n      swap1\n      pop\n      dup1\n      0x00\n      add\n      sload\n      swap1\n      dup1\n      0x01\n      add\n      0x00\n      swap1\n      sload\n      swap1\n      0x0100\n      exp\n      swap1\n      div\n      0xffffffffffffffffffffffffffffffffffffffff\n      and\n      swap1\n      dup1\n      0x02\n      add\n      sload\n      swap1\n      dup1\n      0x03\n      add\n      sload\n      swap1\n      dup1\n      0x04\n      add\n      0x00\n      swap1\n      sload\n      swap1\n      0x0100\n      exp\n      swap1\n      div\n      0xffffffffffffffffffffffffffffffffffffffff\n      and\n      swap1\n      dup1\n      0x04\n      add\n      0x14\n      swap1\n      sload\n      swap1\n      0x0100\n      exp\n      swap1\n      div\n      0xff\n      and\n      swap1\n      pop\n      dup7\n      jump\t// out\n        /* \"contracts/MarketPlace.sol\":2187:2322  function getTotalPrice(uint _itemId) view public returns (uint) {... */\n    tag_34:\n        /* \"contracts/MarketPlace.sol\":2245:2249  uint */\n      0x00\n        /* \"contracts/MarketPlace.sol\":2311:2314  100 */\n      0x64\n        /* \"contracts/MarketPlace.sol\":2298:2308  feePercent */\n      immutable(\"0xca1c98d2cee18ab5da51a9df7bbf45ca91ab83c708e48aed82f5115320306ab4\")\n        /* \"contracts/MarketPlace.sol\":2292:2295  100 */\n      0x64\n        /* \"contracts/MarketPlace.sol\":2292:2308  100 + feePercent */\n      tag_45\n      swap2\n      swap1\n      tag_46\n      jump\t// in\n    tag_45:\n        /* \"contracts/MarketPlace.sol\":2270:2275  items */\n      0x02\n        /* \"contracts/MarketPlace.sol\":2270:2284  items[_itemId] */\n      0x00\n        /* \"contracts/MarketPlace.sol\":2276:2283  _itemId */\n      dup6\n        /* \"contracts/MarketPlace.sol\":2270:2284  items[_itemId] */\n      dup2\n      mstore\n      0x20\n      add\n      swap1\n      dup2\n      mstore\n      0x20\n      add\n      0x00\n      keccak256\n        /* \"contracts/MarketPlace.sol\":2270:2290  items[_itemId].price */\n      0x03\n      add\n      sload\n        /* \"contracts/MarketPlace.sol\":2270:2309  items[_itemId].price*(100 + feePercent) */\n      tag_47\n      swap2\n      swap1\n      tag_48\n      jump\t// in\n    tag_47:\n        /* \"contracts/MarketPlace.sol\":2269:2314  (items[_itemId].price*(100 + feePercent))/100 */\n      tag_49\n      swap2\n      swap1\n      tag_50\n      jump\t// in\n    tag_49:\n        /* \"contracts/MarketPlace.sol\":2261:2315  return ((items[_itemId].price*(100 + feePercent))/100) */\n      swap1\n      pop\n        /* \"contracts/MarketPlace.sol\":2187:2322  function getTotalPrice(uint _itemId) view public returns (uint) {... */\n      swap2\n      swap1\n      pop\n      jump\t// out\n        /* \"contracts/MarketPlace.sol\":1508:2181  function purchaseItem(uint _itemId) external payable nonReentrant {... */\n    tag_38:\n        /* \"@openzeppelin/contracts@4.5.0/security/ReentrancyGuard.sol\":1744:1745  2 */\n      0x02\n        /* \"@openzeppelin/contracts@4.5.0/security/ReentrancyGuard.sol\":2325:2332  _status */\n      sload(0x00)\n        /* \"@openzeppelin/contracts@4.5.0/security/ReentrancyGuard.sol\":2325:2344  _status != _ENTERED */\n      eq\n      iszero\n        /* \"@openzeppelin/contracts@4.5.0/security/ReentrancyGuard.sol\":2317:2380  require(_status != _ENTERED, \"ReentrancyGuard: reentrant call\") */\n      tag_52\n      jumpi\n      mload(0x40)\n      0x08c379a000000000000000000000000000000000000000000000000000000000\n      dup2\n      mstore\n      0x04\n      add\n      tag_53\n      swap1\n      tag_54\n      jump\t// in\n    tag_53:\n      mload(0x40)\n      dup1\n      swap2\n      sub\n      swap1\n      revert\n    tag_52:\n        /* \"@openzeppelin/contracts@4.5.0/security/ReentrancyGuard.sol\":1744:1745  2 */\n      0x02\n        /* \"@openzeppelin/contracts@4.5.0/security/ReentrancyGuard.sol\":2455:2462  _status */\n      0x00\n        /* \"@openzeppelin/contracts@4.5.0/security/ReentrancyGuard.sol\":2455:2473  _status = _ENTERED */\n      dup2\n      swap1\n      sstore\n      pop\n        /* \"contracts/MarketPlace.sol\":1584:1600  uint _totalPrice */\n      0x00\n        /* \"contracts/MarketPlace.sol\":1603:1625  getTotalPrice(_itemId) */\n      tag_56\n        /* \"contracts/MarketPlace.sol\":1617:1624  _itemId */\n      dup3\n        /* \"contracts/MarketPlace.sol\":1603:1616  getTotalPrice */\n      tag_34\n        /* \"contracts/MarketPlace.sol\":1603:1625  getTotalPrice(_itemId) */\n      jump\t// in\n    tag_56:\n        /* \"contracts/MarketPlace.sol\":1584:1625  uint _totalPrice = getTotalPrice(_itemId) */\n      swap1\n      pop\n        /* \"contracts/MarketPlace.sol\":1635:1652  Item storage item */\n      0x00\n        /* \"contracts/MarketPlace.sol\":1655:1660  items */\n      0x02\n        /* \"contracts/MarketPlace.sol\":1655:1669  items[_itemId] */\n      0x00\n        /* \"contracts/MarketPlace.sol\":1661:1668  _itemId */\n      dup5\n        /* \"contracts/MarketPlace.sol\":1655:1669  items[_itemId] */\n      dup2\n      mstore\n      0x20\n      add\n      swap1\n      dup2\n      mstore\n      0x20\n      add\n      0x00\n      keccak256\n        /* \"contracts/MarketPlace.sol\":1635:1669  Item storage item = items[_itemId] */\n      swap1\n      pop\n        /* \"contracts/MarketPlace.sol\":1697:1698  0 */\n      0x00\n        /* \"contracts/MarketPlace.sol\":1687:1694  _itemId */\n      dup4\n        /* \"contracts/MarketPlace.sol\":1687:1698  _itemId > 0 */\n      gt\n        /* \"contracts/MarketPlace.sol\":1687:1722  _itemId > 0 && _itemId <= itemCount */\n      dup1\n      iszero\n      tag_57\n      jumpi\n      pop\n        /* \"contracts/MarketPlace.sol\":1713:1722  itemCount */\n      sload(0x01)\n        /* \"contracts/MarketPlace.sol\":1702:1709  _itemId */\n      dup4\n        /* \"contracts/MarketPlace.sol\":1702:1722  _itemId <= itemCount */\n      gt\n      iszero\n        /* \"contracts/MarketPlace.sol\":1687:1722  _itemId > 0 && _itemId <= itemCount */\n    tag_57:\n        /* \"contracts/MarketPlace.sol\":1679:1723  require(_itemId > 0 && _itemId <= itemCount) */\n      tag_58\n      jumpi\n      0x00\n      dup1\n      revert\n    tag_58:\n        /* \"contracts/MarketPlace.sol\":1754:1765  _totalPrice */\n      dup2\n        /* \"contracts/MarketPlace.sol\":1741:1750  msg.value */\n      callvalue\n        /* \"contracts/MarketPlace.sol\":1741:1765  msg.value >= _totalPrice */\n      lt\n      iszero\n        /* \"contracts/MarketPlace.sol\":1733:1766  require(msg.value >= _totalPrice) */\n      tag_59\n      jumpi\n      0x00\n      dup1\n      revert\n    tag_59:\n        /* \"contracts/MarketPlace.sol\":1785:1789  item */\n      dup1\n        /* \"contracts/MarketPlace.sol\":1785:1794  item.sold */\n      0x04\n      add\n      0x14\n      swap1\n      sload\n      swap1\n      0x0100\n      exp\n      swap1\n      div\n      0xff\n      and\n        /* \"contracts/MarketPlace.sol\":1784:1794  !item.sold */\n      iszero\n        /* \"contracts/MarketPlace.sol\":1776:1795  require(!item.sold) */\n      tag_60\n      jumpi\n      0x00\n      dup1\n      revert\n    tag_60:\n        /* \"contracts/MarketPlace.sol\":1805:1809  item */\n      dup1\n        /* \"contracts/MarketPlace.sol\":1805:1816  item.seller */\n      0x04\n      add\n      0x00\n      swap1\n      sload\n      swap1\n      0x0100\n      exp\n      swap1\n      div\n      0xffffffffffffffffffffffffffffffffffffffff\n      and\n        /* \"contracts/MarketPlace.sol\":1805:1825  item.seller.transfer */\n      0xffffffffffffffffffffffffffffffffffffffff\n      and\n        /* \"contracts/MarketPlace.sol\":1805:1837  item.seller.transfer(item.price) */\n      0x08fc\n        /* \"contracts/MarketPlace.sol\":1826:1830  item */\n      dup3\n        /* \"contracts/MarketPlace.sol\":1826:1836  item.price */\n      0x03\n      add\n      sload\n        /* \"contracts/MarketPlace.sol\":1805:1837  item.seller.transfer(item.price) */\n      swap1\n      dup2\n      iszero\n      mul\n      swap1\n      mload(0x40)\n      0x00\n      mload(0x40)\n      dup1\n      dup4\n      sub\n      dup2\n      dup6\n      dup9\n      dup9\n      call\n      swap4\n      pop\n      pop\n      pop\n      pop\n      iszero\n      dup1\n      iszero\n      tag_62\n      jumpi\n      returndatasize\n      0x00\n      dup1\n      returndatacopy\n      revert(0x00, returndatasize)\n    tag_62:\n      pop\n        /* \"contracts/MarketPlace.sol\":1847:1857  feeAccount */\n      immutable(\"0x9abd569a0444be7ce52d46a7fb79009940c0c0442116f15017290ff13cb4450c\")\n        /* \"contracts/MarketPlace.sol\":1847:1866  feeAccount.transfer */\n      0xffffffffffffffffffffffffffffffffffffffff\n      and\n        /* \"contracts/MarketPlace.sol\":1847:1892  feeAccount.transfer(_totalPrice - item.price) */\n      0x08fc\n        /* \"contracts/MarketPlace.sol\":1881:1885  item */\n      dup3\n        /* \"contracts/MarketPlace.sol\":1881:1891  item.price */\n      0x03\n      add\n      sload\n        /* \"contracts/MarketPlace.sol\":1867:1878  _totalPrice */\n      dup5\n        /* \"contracts/MarketPlace.sol\":1867:1891  _totalPrice - item.price */\n      tag_63\n      swap2\n      swap1\n      tag_64\n      jump\t// in\n    tag_63:\n        /* \"contracts/MarketPlace.sol\":1847:1892  feeAccount.transfer(_totalPrice - item.price) */\n      swap1\n      dup2\n      iszero\n      mul\n      swap1\n      mload(0x40)\n      0x00\n      mload(0x40)\n      dup1\n      dup4\n      sub\n      dup2\n      dup6\n      dup9\n      dup9\n      call\n      swap4\n      pop\n      pop\n      pop\n      pop\n      iszero\n      dup1\n      iszero\n      tag_66\n      jumpi\n      returndatasize\n      0x00\n      dup1\n      returndatacopy\n      revert(0x00, returndatasize)\n    tag_66:\n      pop\n        /* \"contracts/MarketPlace.sol\":1914:1918  true */\n      0x01\n        /* \"contracts/MarketPlace.sol\":1902:1906  item */\n      dup2\n        /* \"contracts/MarketPlace.sol\":1902:1911  item.sold */\n      0x04\n      add\n      0x14\n        /* \"contracts/MarketPlace.sol\":1902:1918  item.sold = true */\n      0x0100\n      exp\n      dup2\n      sload\n      dup2\n      0xff\n      mul\n      not\n      and\n      swap1\n      dup4\n      iszero\n      iszero\n      mul\n      or\n      swap1\n      sstore\n      pop\n        /* \"contracts/MarketPlace.sol\":1928:1932  item */\n      dup1\n        /* \"contracts/MarketPlace.sol\":1928:1936  item.nft */\n      0x01\n      add\n      0x00\n      swap1\n      sload\n      swap1\n      0x0100\n      exp\n      swap1\n      div\n      0xffffffffffffffffffffffffffffffffffffffff\n      and\n        /* \"contracts/MarketPlace.sol\":1928:1949  item.nft.transferFrom */\n      0xffffffffffffffffffffffffffffffffffffffff\n      and\n      0x23b872dd\n        /* \"contracts/MarketPlace.sol\":1958:1962  this */\n      address\n        /* \"contracts/MarketPlace.sol\":1965:1975  msg.sender */\n      caller\n        /* \"contracts/MarketPlace.sol\":1977:1981  item */\n      dup5\n        /* \"contracts/MarketPlace.sol\":1977:1989  item.tokenId */\n      0x02\n      add\n      sload\n        /* \"contracts/MarketPlace.sol\":1928:1990  item.nft.transferFrom(address(this), msg.sender, item.tokenId) */\n      mload(0x40)\n      dup5\n      0xffffffff\n      and\n      0xe0\n      shl\n      dup2\n      mstore\n      0x04\n      add\n      tag_67\n      swap4\n      swap3\n      swap2\n      swap1\n      tag_68\n      jump\t// in\n    tag_67:\n      0x00\n      mload(0x40)\n      dup1\n      dup4\n      sub\n      dup2\n      0x00\n      dup8\n      dup1\n      extcodesize\n      iszero\n      dup1\n      iszero\n      tag_69\n      jumpi\n      0x00\n      dup1\n      revert\n    tag_69:\n      pop\n      gas\n      call\n      iszero\n      dup1\n      iszero\n      tag_71\n      jumpi\n      returndatasize\n      0x00\n      dup1\n      returndatacopy\n      revert(0x00, returndatasize)\n    tag_71:\n      pop\n      pop\n      pop\n      pop\n        /* \"contracts/MarketPlace.sol\":2154:2164  msg.sender */\n      caller\n        /* \"contracts/MarketPlace.sol\":2005:2174  Bought(... */\n      0xffffffffffffffffffffffffffffffffffffffff\n      and\n        /* \"contracts/MarketPlace.sol\":2128:2132  item */\n      dup2\n        /* \"contracts/MarketPlace.sol\":2128:2139  item.seller */\n      0x04\n      add\n      0x00\n      swap1\n      sload\n      swap1\n      0x0100\n      exp\n      swap1\n      div\n      0xffffffffffffffffffffffffffffffffffffffff\n      and\n        /* \"contracts/MarketPlace.sol\":2005:2174  Bought(... */\n      0xffffffffffffffffffffffffffffffffffffffff\n      and\n        /* \"contracts/MarketPlace.sol\":2054:2058  item */\n      dup3\n        /* \"contracts/MarketPlace.sol\":2054:2062  item.nft */\n      0x01\n      add\n      0x00\n      swap1\n      sload\n      swap1\n      0x0100\n      exp\n      swap1\n      div\n      0xffffffffffffffffffffffffffffffffffffffff\n      and\n        /* \"contracts/MarketPlace.sol\":2005:2174  Bought(... */\n      0xffffffffffffffffffffffffffffffffffffffff\n      and\n      0x8b4c9c8a607d67b321582dd8461041b1dc2ceeca70c8b7f37f8e02095cf2e76d\n        /* \"contracts/MarketPlace.sol\":2025:2032  _itemId */\n      dup7\n        /* \"contracts/MarketPlace.sol\":2077:2081  item */\n      dup6\n        /* \"contracts/MarketPlace.sol\":2077:2089  item.tokenId */\n      0x02\n      add\n      sload\n        /* \"contracts/MarketPlace.sol\":2103:2107  item */\n      dup7\n        /* \"contracts/MarketPlace.sol\":2103:2113  item.price */\n      0x03\n      add\n      sload\n        /* \"contracts/MarketPlace.sol\":2005:2174  Bought(... */\n      mload(0x40)\n      tag_72\n      swap4\n      swap3\n      swap2\n      swap1\n      tag_73\n      jump\t// in\n    tag_72:\n      mload(0x40)\n      dup1\n      swap2\n      sub\n      swap1\n      log4\n        /* \"@openzeppelin/contracts@4.5.0/security/ReentrancyGuard.sol\":2484:2485  _ */\n      pop\n      pop\n        /* \"@openzeppelin/contracts@4.5.0/security/ReentrancyGuard.sol\":1701:1702  1 */\n      0x01\n        /* \"@openzeppelin/contracts@4.5.0/security/ReentrancyGuard.sol\":2628:2635  _status */\n      0x00\n        /* \"@openzeppelin/contracts@4.5.0/security/ReentrancyGuard.sol\":2628:2650  _status = _NOT_ENTERED */\n      dup2\n      swap1\n      sstore\n      pop\n        /* \"contracts/MarketPlace.sol\":1508:2181  function purchaseItem(uint _itemId) external payable nonReentrant {... */\n      pop\n      jump\t// out\n        /* \"contracts/MarketPlace.sol\":971:1502  function makeItem(IERC721 _nft, uint _tokenId, uint _price) external nonReentrant {... */\n    tag_43:\n        /* \"@openzeppelin/contracts@4.5.0/security/ReentrancyGuard.sol\":1744:1745  2 */\n      0x02\n        /* \"@openzeppelin/contracts@4.5.0/security/ReentrancyGuard.sol\":2325:2332  _status */\n      sload(0x00)\n        /* \"@openzeppelin/contracts@4.5.0/security/ReentrancyGuard.sol\":2325:2344  _status != _ENTERED */\n      eq\n      iszero\n        /* \"@openzeppelin/contracts@4.5.0/security/ReentrancyGuard.sol\":2317:2380  require(_status != _ENTERED, \"ReentrancyGuard: reentrant call\") */\n      tag_75\n      jumpi\n      mload(0x40)\n      0x08c379a000000000000000000000000000000000000000000000000000000000\n      dup2\n      mstore\n      0x04\n      add\n      tag_76\n      swap1\n      tag_54\n      jump\t// in\n    tag_76:\n      mload(0x40)\n      dup1\n      swap2\n      sub\n      swap1\n      revert\n    tag_75:\n        /* \"@openzeppelin/contracts@4.5.0/security/ReentrancyGuard.sol\":1744:1745  2 */\n      0x02\n        /* \"@openzeppelin/contracts@4.5.0/security/ReentrancyGuard.sol\":2455:2462  _status */\n      0x00\n        /* \"@openzeppelin/contracts@4.5.0/security/ReentrancyGuard.sol\":2455:2473  _status = _ENTERED */\n      dup2\n      swap1\n      sstore\n      pop\n        /* \"contracts/MarketPlace.sol\":1079:1080  0 */\n      0x00\n        /* \"contracts/MarketPlace.sol\":1071:1077  _price */\n      dup2\n        /* \"contracts/MarketPlace.sol\":1071:1080  _price >0 */\n      gt\n        /* \"contracts/MarketPlace.sol\":1063:1081  require(_price >0) */\n      tag_78\n      jumpi\n      0x00\n      dup1\n      revert\n    tag_78:\n        /* \"contracts/MarketPlace.sol\":1091:1100  itemCount */\n      0x01\n      0x00\n        /* \"contracts/MarketPlace.sol\":1091:1102  itemCount++ */\n      dup2\n      sload\n      dup1\n      swap3\n      swap2\n      swap1\n      tag_79\n      swap1\n      tag_80\n      jump\t// in\n    tag_79:\n      swap2\n      swap1\n      pop\n      sstore\n      pop\n        /* \"contracts/MarketPlace.sol\":1112:1116  _nft */\n      dup3\n        /* \"contracts/MarketPlace.sol\":1112:1129  _nft.transferFrom */\n      0xffffffffffffffffffffffffffffffffffffffff\n      and\n      0x23b872dd\n        /* \"contracts/MarketPlace.sol\":1130:1140  msg.sender */\n      caller\n        /* \"contracts/MarketPlace.sol\":1150:1154  this */\n      address\n        /* \"contracts/MarketPlace.sol\":1157:1165  _tokenId */\n      dup6\n        /* \"contracts/MarketPlace.sol\":1112:1166  _nft.transferFrom(msg.sender, address(this), _tokenId) */\n      mload(0x40)\n      dup5\n      0xffffffff\n      and\n      0xe0\n      shl\n      dup2\n      mstore\n      0x04\n      add\n      tag_81\n      swap4\n      swap3\n      swap2\n      swap1\n      tag_68\n      jump\t// in\n    tag_81:\n      0x00\n      mload(0x40)\n      dup1\n      dup4\n      sub\n      dup2\n      0x00\n      dup8\n      dup1\n      extcodesize\n      iszero\n      dup1\n      iszero\n      tag_82\n      jumpi\n      0x00\n      dup1\n      revert\n    tag_82:\n      pop\n      gas\n      call\n      iszero\n      dup1\n      iszero\n      tag_84\n      jumpi\n      returndatasize\n      0x00\n      dup1\n      returndatacopy\n      revert(0x00, returndatasize)\n    tag_84:\n      pop\n      pop\n      pop\n      pop\n        /* \"contracts/MarketPlace.sol\":1195:1344  Item(... */\n      mload(0x40)\n      dup1\n      0xc0\n      add\n      0x40\n      mstore\n      dup1\n        /* \"contracts/MarketPlace.sol\":1213:1222  itemCount */\n      sload(0x01)\n        /* \"contracts/MarketPlace.sol\":1195:1344  Item(... */\n      dup2\n      mstore\n      0x20\n      add\n        /* \"contracts/MarketPlace.sol\":1236:1240  _nft */\n      dup5\n        /* \"contracts/MarketPlace.sol\":1195:1344  Item(... */\n      0xffffffffffffffffffffffffffffffffffffffff\n      and\n      dup2\n      mstore\n      0x20\n      add\n        /* \"contracts/MarketPlace.sol\":1254:1262  _tokenId */\n      dup4\n        /* \"contracts/MarketPlace.sol\":1195:1344  Item(... */\n      dup2\n      mstore\n      0x20\n      add\n        /* \"contracts/MarketPlace.sol\":1276:1282  _price */\n      dup3\n        /* \"contracts/MarketPlace.sol\":1195:1344  Item(... */\n      dup2\n      mstore\n      0x20\n      add\n        /* \"contracts/MarketPlace.sol\":1304:1314  msg.sender */\n      caller\n        /* \"contracts/MarketPlace.sol\":1195:1344  Item(... */\n      0xffffffffffffffffffffffffffffffffffffffff\n      and\n      dup2\n      mstore\n      0x20\n      add\n        /* \"contracts/MarketPlace.sol\":1329:1334  false */\n      0x00\n        /* \"contracts/MarketPlace.sol\":1195:1344  Item(... */\n      iszero\n      iszero\n      dup2\n      mstore\n      pop\n        /* \"contracts/MarketPlace.sol\":1176:1181  items */\n      0x02\n        /* \"contracts/MarketPlace.sol\":1176:1192  items[itemCount] */\n      0x00\n        /* \"contracts/MarketPlace.sol\":1182:1191  itemCount */\n      sload(0x01)\n        /* \"contracts/MarketPlace.sol\":1176:1192  items[itemCount] */\n      dup2\n      mstore\n      0x20\n      add\n      swap1\n      dup2\n      mstore\n      0x20\n      add\n      0x00\n      keccak256\n        /* \"contracts/MarketPlace.sol\":1176:1344  items[itemCount] = Item(... */\n      0x00\n      dup3\n      add\n      mload\n      dup2\n      0x00\n      add\n      sstore\n      0x20\n      dup3\n      add\n      mload\n      dup2\n      0x01\n      add\n      exp(0x0100, 0x00)\n      dup2\n      sload\n      dup2\n      0xffffffffffffffffffffffffffffffffffffffff\n      mul\n      not\n      and\n      swap1\n      dup4\n      0xffffffffffffffffffffffffffffffffffffffff\n      and\n      mul\n      or\n      swap1\n      sstore\n      pop\n      0x40\n      dup3\n      add\n      mload\n      dup2\n      0x02\n      add\n      sstore\n      0x60\n      dup3\n      add\n      mload\n      dup2\n      0x03\n      add\n      sstore\n      0x80\n      dup3\n      add\n      mload\n      dup2\n      0x04\n      add\n      exp(0x0100, 0x00)\n      dup2\n      sload\n      dup2\n      0xffffffffffffffffffffffffffffffffffffffff\n      mul\n      not\n      and\n      swap1\n      dup4\n      0xffffffffffffffffffffffffffffffffffffffff\n      and\n      mul\n      or\n      swap1\n      sstore\n      pop\n      0xa0\n      dup3\n      add\n      mload\n      dup2\n      0x04\n      add\n      exp(0x0100, 0x14)\n      dup2\n      sload\n      dup2\n      0xff\n      mul\n      not\n      and\n      swap1\n      dup4\n      iszero\n      iszero\n      mul\n      or\n      swap1\n      sstore\n      pop\n      swap1\n      pop\n      pop\n        /* \"contracts/MarketPlace.sol\":1473:1483  msg.sender */\n      caller\n        /* \"contracts/MarketPlace.sol\":1360:1493  Offered(... */\n      0xffffffffffffffffffffffffffffffffffffffff\n      and\n        /* \"contracts/MarketPlace.sol\":1412:1416  _nft */\n      dup4\n        /* \"contracts/MarketPlace.sol\":1360:1493  Offered(... */\n      0xffffffffffffffffffffffffffffffffffffffff\n      and\n      0x655a0cf9c8db81512be9a76dc1c5ae5380b8816ce6ad659cd61b715e2999d59a\n        /* \"contracts/MarketPlace.sol\":1381:1390  itemCount */\n      sload(0x01)\n        /* \"contracts/MarketPlace.sol\":1431:1439  _tokenId */\n      dup6\n        /* \"contracts/MarketPlace.sol\":1453:1459  _price */\n      dup6\n        /* \"contracts/MarketPlace.sol\":1360:1493  Offered(... */\n      mload(0x40)\n      tag_85\n      swap4\n      swap3\n      swap2\n      swap1\n      tag_73\n      jump\t// in\n    tag_85:\n      mload(0x40)\n      dup1\n      swap2\n      sub\n      swap1\n      log3\n        /* \"@openzeppelin/contracts@4.5.0/security/ReentrancyGuard.sol\":1701:1702  1 */\n      0x01\n        /* \"@openzeppelin/contracts@4.5.0/security/ReentrancyGuard.sol\":2628:2635  _status */\n      0x00\n        /* \"@openzeppelin/contracts@4.5.0/security/ReentrancyGuard.sol\":2628:2650  _status = _NOT_ENTERED */\n      dup2\n      swap1\n      sstore\n      pop\n        /* \"contracts/MarketPlace.sol\":971:1502  function makeItem(IERC721 _nft, uint _tokenId, uint _price) external nonReentrant {... */\n      pop\n      pop\n      pop\n      jump\t// out\n        /* \"#utility.yul\":7:176   */\n    tag_87:\n        /* \"#utility.yul\":68:73   */\n      0x00\n        /* \"#utility.yul\":106:112   */\n      dup2\n        /* \"#utility.yul\":93:113   */\n      calldataload\n        /* \"#utility.yul\":84:113   */\n      swap1\n      pop\n        /* \"#utility.yul\":122:170   */\n      tag_89\n        /* \"#utility.yul\":164:169   */\n      dup2\n        /* \"#utility.yul\":122:170   */\n      tag_90\n      jump\t// in\n    tag_89:\n        /* \"#utility.yul\":74:176   */\n      swap3\n      swap2\n      pop\n      pop\n      jump\t// out\n        /* \"#utility.yul\":182:321   */\n    tag_91:\n        /* \"#utility.yul\":228:233   */\n      0x00\n        /* \"#utility.yul\":266:272   */\n      dup2\n        /* \"#utility.yul\":253:273   */\n      calldataload\n        /* \"#utility.yul\":244:273   */\n      swap1\n      pop\n        /* \"#utility.yul\":282:315   */\n      tag_93\n        /* \"#utility.yul\":309:314   */\n      dup2\n        /* \"#utility.yul\":282:315   */\n      tag_94\n      jump\t// in\n    tag_93:\n        /* \"#utility.yul\":234:321   */\n      swap3\n      swap2\n      pop\n      pop\n      jump\t// out\n        /* \"#utility.yul\":327:909   */\n    tag_42:\n        /* \"#utility.yul\":419:425   */\n      0x00\n        /* \"#utility.yul\":427:433   */\n      dup1\n        /* \"#utility.yul\":435:441   */\n      0x00\n        /* \"#utility.yul\":484:486   */\n      0x60\n        /* \"#utility.yul\":472:481   */\n      dup5\n        /* \"#utility.yul\":463:470   */\n      dup7\n        /* \"#utility.yul\":459:482   */\n      sub\n        /* \"#utility.yul\":455:487   */\n      slt\n        /* \"#utility.yul\":452:454   */\n      iszero\n      tag_96\n      jumpi\n        /* \"#utility.yul\":500:501   */\n      0x00\n        /* \"#utility.yul\":497:498   */\n      dup1\n        /* \"#utility.yul\":490:502   */\n      revert\n        /* \"#utility.yul\":452:454   */\n    tag_96:\n        /* \"#utility.yul\":543:544   */\n      0x00\n        /* \"#utility.yul\":568:636   */\n      tag_97\n        /* \"#utility.yul\":628:635   */\n      dup7\n        /* \"#utility.yul\":619:625   */\n      dup3\n        /* \"#utility.yul\":608:617   */\n      dup8\n        /* \"#utility.yul\":604:626   */\n      add\n        /* \"#utility.yul\":568:636   */\n      tag_87\n      jump\t// in\n    tag_97:\n        /* \"#utility.yul\":558:636   */\n      swap4\n      pop\n        /* \"#utility.yul\":514:646   */\n      pop\n        /* \"#utility.yul\":685:687   */\n      0x20\n        /* \"#utility.yul\":711:764   */\n      tag_98\n        /* \"#utility.yul\":756:763   */\n      dup7\n        /* \"#utility.yul\":747:753   */\n      dup3\n        /* \"#utility.yul\":736:745   */\n      dup8\n        /* \"#utility.yul\":732:754   */\n      add\n        /* \"#utility.yul\":711:764   */\n      tag_91\n      jump\t// in\n    tag_98:\n        /* \"#utility.yul\":701:764   */\n      swap3\n      pop\n        /* \"#utility.yul\":656:774   */\n      pop\n        /* \"#utility.yul\":813:815   */\n      0x40\n        /* \"#utility.yul\":839:892   */\n      tag_99\n        /* \"#utility.yul\":884:891   */\n      dup7\n        /* \"#utility.yul\":875:881   */\n      dup3\n        /* \"#utility.yul\":864:873   */\n      dup8\n        /* \"#utility.yul\":860:882   */\n      add\n        /* \"#utility.yul\":839:892   */\n      tag_91\n      jump\t// in\n    tag_99:\n        /* \"#utility.yul\":829:892   */\n      swap2\n      pop\n        /* \"#utility.yul\":784:902   */\n      pop\n        /* \"#utility.yul\":442:909   */\n      swap3\n      pop\n      swap3\n      pop\n      swap3\n      jump\t// out\n        /* \"#utility.yul\":915:1177   */\n    tag_27:\n        /* \"#utility.yul\":974:980   */\n      0x00\n        /* \"#utility.yul\":1023:1025   */\n      0x20\n        /* \"#utility.yul\":1011:1020   */\n      dup3\n        /* \"#utility.yul\":1002:1009   */\n      dup5\n        /* \"#utility.yul\":998:1021   */\n      sub\n        /* \"#utility.yul\":994:1026   */\n      slt\n        /* \"#utility.yul\":991:993   */\n      iszero\n      tag_101\n      jumpi\n        /* \"#utility.yul\":1039:1040   */\n      0x00\n        /* \"#utility.yul\":1036:1037   */\n      dup1\n        /* \"#utility.yul\":1029:1041   */\n      revert\n        /* \"#utility.yul\":991:993   */\n    tag_101:\n        /* \"#utility.yul\":1082:1083   */\n      0x00\n        /* \"#utility.yul\":1107:1160   */\n      tag_102\n        /* \"#utility.yul\":1152:1159   */\n      dup5\n        /* \"#utility.yul\":1143:1149   */\n      dup3\n        /* \"#utility.yul\":1132:1141   */\n      dup6\n        /* \"#utility.yul\":1128:1150   */\n      add\n        /* \"#utility.yul\":1107:1160   */\n      tag_91\n      jump\t// in\n    tag_102:\n        /* \"#utility.yul\":1097:1160   */\n      swap2\n      pop\n        /* \"#utility.yul\":1053:1170   */\n      pop\n        /* \"#utility.yul\":981:1177   */\n      swap3\n      swap2\n      pop\n      pop\n      jump\t// out\n        /* \"#utility.yul\":1183:1325   */\n    tag_103:\n        /* \"#utility.yul\":1286:1318   */\n      tag_105\n        /* \"#utility.yul\":1312:1317   */\n      dup2\n        /* \"#utility.yul\":1286:1318   */\n      tag_106\n      jump\t// in\n    tag_105:\n        /* \"#utility.yul\":1281:1284   */\n      dup3\n        /* \"#utility.yul\":1274:1319   */\n      mstore\n        /* \"#utility.yul\":1264:1325   */\n      pop\n      pop\n      jump\t// out\n        /* \"#utility.yul\":1331:1449   */\n    tag_107:\n        /* \"#utility.yul\":1418:1442   */\n      tag_109\n        /* \"#utility.yul\":1436:1441   */\n      dup2\n        /* \"#utility.yul\":1418:1442   */\n      tag_110\n      jump\t// in\n    tag_109:\n        /* \"#utility.yul\":1413:1416   */\n      dup3\n        /* \"#utility.yul\":1406:1443   */\n      mstore\n        /* \"#utility.yul\":1396:1449   */\n      pop\n      pop\n      jump\t// out\n        /* \"#utility.yul\":1455:1564   */\n    tag_111:\n        /* \"#utility.yul\":1536:1557   */\n      tag_113\n        /* \"#utility.yul\":1551:1556   */\n      dup2\n        /* \"#utility.yul\":1536:1557   */\n      tag_114\n      jump\t// in\n    tag_113:\n        /* \"#utility.yul\":1531:1534   */\n      dup3\n        /* \"#utility.yul\":1524:1558   */\n      mstore\n        /* \"#utility.yul\":1514:1564   */\n      pop\n      pop\n      jump\t// out\n        /* \"#utility.yul\":1570:1731   */\n    tag_115:\n        /* \"#utility.yul\":1672:1724   */\n      tag_117\n        /* \"#utility.yul\":1718:1723   */\n      dup2\n        /* \"#utility.yul\":1672:1724   */\n      tag_118\n      jump\t// in\n    tag_117:\n        /* \"#utility.yul\":1667:1670   */\n      dup3\n        /* \"#utility.yul\":1660:1725   */\n      mstore\n        /* \"#utility.yul\":1650:1731   */\n      pop\n      pop\n      jump\t// out\n        /* \"#utility.yul\":1737:2103   */\n    tag_119:\n        /* \"#utility.yul\":1879:1882   */\n      0x00\n        /* \"#utility.yul\":1900:1967   */\n      tag_121\n        /* \"#utility.yul\":1964:1966   */\n      0x1f\n        /* \"#utility.yul\":1959:1962   */\n      dup4\n        /* \"#utility.yul\":1900:1967   */\n      tag_122\n      jump\t// in\n    tag_121:\n        /* \"#utility.yul\":1893:1967   */\n      swap2\n      pop\n        /* \"#utility.yul\":1976:2069   */\n      tag_123\n        /* \"#utility.yul\":2065:2068   */\n      dup3\n        /* \"#utility.yul\":1976:2069   */\n      tag_124\n      jump\t// in\n    tag_123:\n        /* \"#utility.yul\":2094:2096   */\n      0x20\n        /* \"#utility.yul\":2089:2092   */\n      dup3\n        /* \"#utility.yul\":2085:2097   */\n      add\n        /* \"#utility.yul\":2078:2097   */\n      swap1\n      pop\n        /* \"#utility.yul\":1883:2103   */\n      swap2\n      swap1\n      pop\n      jump\t// out\n        /* \"#utility.yul\":2109:2227   */\n    tag_125:\n        /* \"#utility.yul\":2196:2220   */\n      tag_127\n        /* \"#utility.yul\":2214:2219   */\n      dup2\n        /* \"#utility.yul\":2196:2220   */\n      tag_128\n      jump\t// in\n    tag_127:\n        /* \"#utility.yul\":2191:2194   */\n      dup3\n        /* \"#utility.yul\":2184:2221   */\n      mstore\n        /* \"#utility.yul\":2174:2227   */\n      pop\n      pop\n      jump\t// out\n        /* \"#utility.yul\":2233:2487   */\n    tag_14:\n        /* \"#utility.yul\":2342:2346   */\n      0x00\n        /* \"#utility.yul\":2380:2382   */\n      0x20\n        /* \"#utility.yul\":2369:2378   */\n      dup3\n        /* \"#utility.yul\":2365:2383   */\n      add\n        /* \"#utility.yul\":2357:2383   */\n      swap1\n      pop\n        /* \"#utility.yul\":2393:2480   */\n      tag_130\n        /* \"#utility.yul\":2477:2478   */\n      0x00\n        /* \"#utility.yul\":2466:2475   */\n      dup4\n        /* \"#utility.yul\":2462:2479   */\n      add\n        /* \"#utility.yul\":2453:2459   */\n      dup5\n        /* \"#utility.yul\":2393:2480   */\n      tag_103\n      jump\t// in\n    tag_130:\n        /* \"#utility.yul\":2347:2487   */\n      swap3\n      swap2\n      pop\n      pop\n      jump\t// out\n        /* \"#utility.yul\":2493:2935   */\n    tag_68:\n        /* \"#utility.yul\":2642:2646   */\n      0x00\n        /* \"#utility.yul\":2680:2682   */\n      0x60\n        /* \"#utility.yul\":2669:2678   */\n      dup3\n        /* \"#utility.yul\":2665:2683   */\n      add\n        /* \"#utility.yul\":2657:2683   */\n      swap1\n      pop\n        /* \"#utility.yul\":2693:2764   */\n      tag_132\n        /* \"#utility.yul\":2761:2762   */\n      0x00\n        /* \"#utility.yul\":2750:2759   */\n      dup4\n        /* \"#utility.yul\":2746:2763   */\n      add\n        /* \"#utility.yul\":2737:2743   */\n      dup7\n        /* \"#utility.yul\":2693:2764   */\n      tag_107\n      jump\t// in\n    tag_132:\n        /* \"#utility.yul\":2774:2846   */\n      tag_133\n        /* \"#utility.yul\":2842:2844   */\n      0x20\n        /* \"#utility.yul\":2831:2840   */\n      dup4\n        /* \"#utility.yul\":2827:2845   */\n      add\n        /* \"#utility.yul\":2818:2824   */\n      dup6\n        /* \"#utility.yul\":2774:2846   */\n      tag_107\n      jump\t// in\n    tag_133:\n        /* \"#utility.yul\":2856:2928   */\n      tag_134\n        /* \"#utility.yul\":2924:2926   */\n      0x40\n        /* \"#utility.yul\":2913:2922   */\n      dup4\n        /* \"#utility.yul\":2909:2927   */\n      add\n        /* \"#utility.yul\":2900:2906   */\n      dup5\n        /* \"#utility.yul\":2856:2928   */\n      tag_125\n      jump\t// in\n    tag_134:\n        /* \"#utility.yul\":2647:2935   */\n      swap5\n      swap4\n      pop\n      pop\n      pop\n      pop\n      jump\t// out\n        /* \"#utility.yul\":2941:3360   */\n    tag_54:\n        /* \"#utility.yul\":3107:3111   */\n      0x00\n        /* \"#utility.yul\":3145:3147   */\n      0x20\n        /* \"#utility.yul\":3134:3143   */\n      dup3\n        /* \"#utility.yul\":3130:3148   */\n      add\n        /* \"#utility.yul\":3122:3148   */\n      swap1\n      pop\n        /* \"#utility.yul\":3194:3203   */\n      dup2\n        /* \"#utility.yul\":3188:3192   */\n      dup2\n        /* \"#utility.yul\":3184:3204   */\n      sub\n        /* \"#utility.yul\":3180:3181   */\n      0x00\n        /* \"#utility.yul\":3169:3178   */\n      dup4\n        /* \"#utility.yul\":3165:3182   */\n      add\n        /* \"#utility.yul\":3158:3205   */\n      mstore\n        /* \"#utility.yul\":3222:3353   */\n      tag_136\n        /* \"#utility.yul\":3348:3352   */\n      dup2\n        /* \"#utility.yul\":3222:3353   */\n      tag_119\n      jump\t// in\n    tag_136:\n        /* \"#utility.yul\":3214:3353   */\n      swap1\n      pop\n        /* \"#utility.yul\":3112:3360   */\n      swap2\n      swap1\n      pop\n      jump\t// out\n        /* \"#utility.yul\":3366:3588   */\n    tag_19:\n        /* \"#utility.yul\":3459:3463   */\n      0x00\n        /* \"#utility.yul\":3497:3499   */\n      0x20\n        /* \"#utility.yul\":3486:3495   */\n      dup3\n        /* \"#utility.yul\":3482:3500   */\n      add\n        /* \"#utility.yul\":3474:3500   */\n      swap1\n      pop\n        /* \"#utility.yul\":3510:3581   */\n      tag_138\n        /* \"#utility.yul\":3578:3579   */\n      0x00\n        /* \"#utility.yul\":3567:3576   */\n      dup4\n        /* \"#utility.yul\":3563:3580   */\n      add\n        /* \"#utility.yul\":3554:3560   */\n      dup5\n        /* \"#utility.yul\":3510:3581   */\n      tag_125\n      jump\t// in\n    tag_138:\n        /* \"#utility.yul\":3464:3588   */\n      swap3\n      swap2\n      pop\n      pop\n      jump\t// out\n        /* \"#utility.yul\":3594:4419   */\n    tag_30:\n        /* \"#utility.yul\":3852:3856   */\n      0x00\n        /* \"#utility.yul\":3890:3893   */\n      0xc0\n        /* \"#utility.yul\":3879:3888   */\n      dup3\n        /* \"#utility.yul\":3875:3894   */\n      add\n        /* \"#utility.yul\":3867:3894   */\n      swap1\n      pop\n        /* \"#utility.yul\":3904:3975   */\n      tag_140\n        /* \"#utility.yul\":3972:3973   */\n      0x00\n        /* \"#utility.yul\":3961:3970   */\n      dup4\n        /* \"#utility.yul\":3957:3974   */\n      add\n        /* \"#utility.yul\":3948:3954   */\n      dup10\n        /* \"#utility.yul\":3904:3975   */\n      tag_125\n      jump\t// in\n    tag_140:\n        /* \"#utility.yul\":3985:4072   */\n      tag_141\n        /* \"#utility.yul\":4068:4070   */\n      0x20\n        /* \"#utility.yul\":4057:4066   */\n      dup4\n        /* \"#utility.yul\":4053:4071   */\n      add\n        /* \"#utility.yul\":4044:4050   */\n      dup9\n        /* \"#utility.yul\":3985:4072   */\n      tag_115\n      jump\t// in\n    tag_141:\n        /* \"#utility.yul\":4082:4154   */\n      tag_142\n        /* \"#utility.yul\":4150:4152   */\n      0x40\n        /* \"#utility.yul\":4139:4148   */\n      dup4\n        /* \"#utility.yul\":4135:4153   */\n      add\n        /* \"#utility.yul\":4126:4132   */\n      dup8\n        /* \"#utility.yul\":4082:4154   */\n      tag_125\n      jump\t// in\n    tag_142:\n        /* \"#utility.yul\":4164:4236   */\n      tag_143\n        /* \"#utility.yul\":4232:4234   */\n      0x60\n        /* \"#utility.yul\":4221:4230   */\n      dup4\n        /* \"#utility.yul\":4217:4235   */\n      add\n        /* \"#utility.yul\":4208:4214   */\n      dup7\n        /* \"#utility.yul\":4164:4236   */\n      tag_125\n      jump\t// in\n    tag_143:\n        /* \"#utility.yul\":4246:4335   */\n      tag_144\n        /* \"#utility.yul\":4330:4333   */\n      0x80\n        /* \"#utility.yul\":4319:4328   */\n      dup4\n        /* \"#utility.yul\":4315:4334   */\n      add\n        /* \"#utility.yul\":4306:4312   */\n      dup6\n        /* \"#utility.yul\":4246:4335   */\n      tag_103\n      jump\t// in\n    tag_144:\n        /* \"#utility.yul\":4345:4412   */\n      tag_145\n        /* \"#utility.yul\":4407:4410   */\n      0xa0\n        /* \"#utility.yul\":4396:4405   */\n      dup4\n        /* \"#utility.yul\":4392:4411   */\n      add\n        /* \"#utility.yul\":4383:4389   */\n      dup5\n        /* \"#utility.yul\":4345:4412   */\n      tag_111\n      jump\t// in\n    tag_145:\n        /* \"#utility.yul\":3857:4419   */\n      swap8\n      swap7\n      pop\n      pop\n      pop\n      pop\n      pop\n      pop\n      pop\n      jump\t// out\n        /* \"#utility.yul\":4425:4867   */\n    tag_73:\n        /* \"#utility.yul\":4574:4578   */\n      0x00\n        /* \"#utility.yul\":4612:4614   */\n      0x60\n        /* \"#utility.yul\":4601:4610   */\n      dup3\n        /* \"#utility.yul\":4597:4615   */\n      add\n        /* \"#utility.yul\":4589:4615   */\n      swap1\n      pop\n        /* \"#utility.yul\":4625:4696   */\n      tag_147\n        /* \"#utility.yul\":4693:4694   */\n      0x00\n        /* \"#utility.yul\":4682:4691   */\n      dup4\n        /* \"#utility.yul\":4678:4695   */\n      add\n        /* \"#utility.yul\":4669:4675   */\n      dup7\n        /* \"#utility.yul\":4625:4696   */\n      tag_125\n      jump\t// in\n    tag_147:\n        /* \"#utility.yul\":4706:4778   */\n      tag_148\n        /* \"#utility.yul\":4774:4776   */\n      0x20\n        /* \"#utility.yul\":4763:4772   */\n      dup4\n        /* \"#utility.yul\":4759:4777   */\n      add\n        /* \"#utility.yul\":4750:4756   */\n      dup6\n        /* \"#utility.yul\":4706:4778   */\n      tag_125\n      jump\t// in\n    tag_148:\n        /* \"#utility.yul\":4788:4860   */\n      tag_149\n        /* \"#utility.yul\":4856:4858   */\n      0x40\n        /* \"#utility.yul\":4845:4854   */\n      dup4\n        /* \"#utility.yul\":4841:4859   */\n      add\n        /* \"#utility.yul\":4832:4838   */\n      dup5\n        /* \"#utility.yul\":4788:4860   */\n      tag_125\n      jump\t// in\n    tag_149:\n        /* \"#utility.yul\":4579:4867   */\n      swap5\n      swap4\n      pop\n      pop\n      pop\n      pop\n      jump\t// out\n        /* \"#utility.yul\":4873:5042   */\n    tag_122:\n        /* \"#utility.yul\":4957:4968   */\n      0x00\n        /* \"#utility.yul\":4991:4997   */\n      dup3\n        /* \"#utility.yul\":4986:4989   */\n      dup3\n        /* \"#utility.yul\":4979:4998   */\n      mstore\n        /* \"#utility.yul\":5031:5035   */\n      0x20\n        /* \"#utility.yul\":5026:5029   */\n      dup3\n        /* \"#utility.yul\":5022:5036   */\n      add\n        /* \"#utility.yul\":5007:5036   */\n      swap1\n      pop\n        /* \"#utility.yul\":4969:5042   */\n      swap3\n      swap2\n      pop\n      pop\n      jump\t// out\n        /* \"#utility.yul\":5048:5353   */\n    tag_46:\n        /* \"#utility.yul\":5088:5091   */\n      0x00\n        /* \"#utility.yul\":5107:5127   */\n      tag_152\n        /* \"#utility.yul\":5125:5126   */\n      dup3\n        /* \"#utility.yul\":5107:5127   */\n      tag_128\n      jump\t// in\n    tag_152:\n        /* \"#utility.yul\":5102:5127   */\n      swap2\n      pop\n        /* \"#utility.yul\":5141:5161   */\n      tag_153\n        /* \"#utility.yul\":5159:5160   */\n      dup4\n        /* \"#utility.yul\":5141:5161   */\n      tag_128\n      jump\t// in\n    tag_153:\n        /* \"#utility.yul\":5136:5161   */\n      swap3\n      pop\n        /* \"#utility.yul\":5295:5296   */\n      dup3\n        /* \"#utility.yul\":5227:5293   */\n      0xffffffffffffffffffffffffffffffffffffffffffffffffffffffffffffffff\n        /* \"#utility.yul\":5223:5297   */\n      sub\n        /* \"#utility.yul\":5220:5221   */\n      dup3\n        /* \"#utility.yul\":5217:5298   */\n      gt\n        /* \"#utility.yul\":5214:5216   */\n      iszero\n      tag_154\n      jumpi\n        /* \"#utility.yul\":5301:5319   */\n      tag_155\n      tag_156\n      jump\t// in\n    tag_155:\n        /* \"#utility.yul\":5214:5216   */\n    tag_154:\n        /* \"#utility.yul\":5345:5346   */\n      dup3\n        /* \"#utility.yul\":5342:5343   */\n      dup3\n        /* \"#utility.yul\":5338:5347   */\n      add\n        /* \"#utility.yul\":5331:5347   */\n      swap1\n      pop\n        /* \"#utility.yul\":5092:5353   */\n      swap3\n      swap2\n      pop\n      pop\n      jump\t// out\n        /* \"#utility.yul\":5359:5544   */\n    tag_50:\n        /* \"#utility.yul\":5399:5400   */\n      0x00\n        /* \"#utility.yul\":5416:5436   */\n      tag_158\n        /* \"#utility.yul\":5434:5435   */\n      dup3\n        /* \"#utility.yul\":5416:5436   */\n      tag_128\n      jump\t// in\n    tag_158:\n        /* \"#utility.yul\":5411:5436   */\n      swap2\n      pop\n        /* \"#utility.yul\":5450:5470   */\n      tag_159\n        /* \"#utility.yul\":5468:5469   */\n      dup4\n        /* \"#utility.yul\":5450:5470   */\n      tag_128\n      jump\t// in\n    tag_159:\n        /* \"#utility.yul\":5445:5470   */\n      swap3\n      pop\n        /* \"#utility.yul\":5489:5490   */\n      dup3\n        /* \"#utility.yul\":5479:5481   */\n      tag_160\n      jumpi\n        /* \"#utility.yul\":5494:5512   */\n      tag_161\n      tag_162\n      jump\t// in\n    tag_161:\n        /* \"#utility.yul\":5479:5481   */\n    tag_160:\n        /* \"#utility.yul\":5536:5537   */\n      dup3\n        /* \"#utility.yul\":5533:5534   */\n      dup3\n        /* \"#utility.yul\":5529:5538   */\n      div\n        /* \"#utility.yul\":5524:5538   */\n      swap1\n      pop\n        /* \"#utility.yul\":5401:5544   */\n      swap3\n      swap2\n      pop\n      pop\n      jump\t// out\n        /* \"#utility.yul\":5550:5898   */\n    tag_48:\n        /* \"#utility.yul\":5590:5597   */\n      0x00\n        /* \"#utility.yul\":5613:5633   */\n      tag_164\n        /* \"#utility.yul\":5631:5632   */\n      dup3\n        /* \"#utility.yul\":5613:5633   */\n      tag_128\n      jump\t// in\n    tag_164:\n        /* \"#utility.yul\":5608:5633   */\n      swap2\n      pop\n        /* \"#utility.yul\":5647:5667   */\n      tag_165\n        /* \"#utility.yul\":5665:5666   */\n      dup4\n        /* \"#utility.yul\":5647:5667   */\n      tag_128\n      jump\t// in\n    tag_165:\n        /* \"#utility.yul\":5642:5667   */\n      swap3\n      pop\n        /* \"#utility.yul\":5835:5836   */\n      dup2\n        /* \"#utility.yul\":5767:5833   */\n      0xffffffffffffffffffffffffffffffffffffffffffffffffffffffffffffffff\n        /* \"#utility.yul\":5763:5837   */\n      div\n        /* \"#utility.yul\":5760:5761   */\n      dup4\n        /* \"#utility.yul\":5757:5838   */\n      gt\n        /* \"#utility.yul\":5752:5753   */\n      dup3\n        /* \"#utility.yul\":5745:5754   */\n      iszero\n        /* \"#utility.yul\":5738:5755   */\n      iszero\n        /* \"#utility.yul\":5734:5839   */\n      and\n        /* \"#utility.yul\":5731:5733   */\n      iszero\n      tag_166\n      jumpi\n        /* \"#utility.yul\":5842:5860   */\n      tag_167\n      tag_156\n      jump\t// in\n    tag_167:\n        /* \"#utility.yul\":5731:5733   */\n    tag_166:\n        /* \"#utility.yul\":5890:5891   */\n      dup3\n        /* \"#utility.yul\":5887:5888   */\n      dup3\n        /* \"#utility.yul\":5883:5892   */\n      mul\n        /* \"#utility.yul\":5872:5892   */\n      swap1\n      pop\n        /* \"#utility.yul\":5598:5898   */\n      swap3\n      swap2\n      pop\n      pop\n      jump\t// out\n        /* \"#utility.yul\":5904:6095   */\n    tag_64:\n        /* \"#utility.yul\":5944:5948   */\n      0x00\n        /* \"#utility.yul\":5964:5984   */\n      tag_169\n        /* \"#utility.yul\":5982:5983   */\n      dup3\n        /* \"#utility.yul\":5964:5984   */\n      tag_128\n      jump\t// in\n    tag_169:\n        /* \"#utility.yul\":5959:5984   */\n      swap2\n      pop\n        /* \"#utility.yul\":5998:6018   */\n      tag_170\n        /* \"#utility.yul\":6016:6017   */\n      dup4\n        /* \"#utility.yul\":5998:6018   */\n      tag_128\n      jump\t// in\n    tag_170:\n        /* \"#utility.yul\":5993:6018   */\n      swap3\n      pop\n        /* \"#utility.yul\":6037:6038   */\n      dup3\n        /* \"#utility.yul\":6034:6035   */\n      dup3\n        /* \"#utility.yul\":6031:6039   */\n      lt\n        /* \"#utility.yul\":6028:6030   */\n      iszero\n      tag_171\n      jumpi\n        /* \"#utility.yul\":6042:6060   */\n      tag_172\n      tag_156\n      jump\t// in\n    tag_172:\n        /* \"#utility.yul\":6028:6030   */\n    tag_171:\n        /* \"#utility.yul\":6087:6088   */\n      dup3\n        /* \"#utility.yul\":6084:6085   */\n      dup3\n        /* \"#utility.yul\":6080:6089   */\n      sub\n        /* \"#utility.yul\":6072:6089   */\n      swap1\n      pop\n        /* \"#utility.yul\":5949:6095   */\n      swap3\n      swap2\n      pop\n      pop\n      jump\t// out\n        /* \"#utility.yul\":6101:6197   */\n    tag_110:\n        /* \"#utility.yul\":6138:6145   */\n      0x00\n        /* \"#utility.yul\":6167:6191   */\n      tag_174\n        /* \"#utility.yul\":6185:6190   */\n      dup3\n        /* \"#utility.yul\":6167:6191   */\n      tag_175\n      jump\t// in\n    tag_174:\n        /* \"#utility.yul\":6156:6191   */\n      swap1\n      pop\n        /* \"#utility.yul\":6146:6197   */\n      swap2\n      swap1\n      pop\n      jump\t// out\n        /* \"#utility.yul\":6203:6307   */\n    tag_106:\n        /* \"#utility.yul\":6248:6255   */\n      0x00\n        /* \"#utility.yul\":6277:6301   */\n      tag_177\n        /* \"#utility.yul\":6295:6300   */\n      dup3\n        /* \"#utility.yul\":6277:6301   */\n      tag_175\n      jump\t// in\n    tag_177:\n        /* \"#utility.yul\":6266:6301   */\n      swap1\n      pop\n        /* \"#utility.yul\":6256:6307   */\n      swap2\n      swap1\n      pop\n      jump\t// out\n        /* \"#utility.yul\":6313:6403   */\n    tag_114:\n        /* \"#utility.yul\":6347:6354   */\n      0x00\n        /* \"#utility.yul\":6390:6395   */\n      dup2\n        /* \"#utility.yul\":6383:6396   */\n      iszero\n        /* \"#utility.yul\":6376:6397   */\n      iszero\n        /* \"#utility.yul\":6365:6397   */\n      swap1\n      pop\n        /* \"#utility.yul\":6355:6403   */\n      swap2\n      swap1\n      pop\n      jump\t// out\n        /* \"#utility.yul\":6409:6520   */\n    tag_179:\n        /* \"#utility.yul\":6461:6468   */\n      0x00\n        /* \"#utility.yul\":6490:6514   */\n      tag_181\n        /* \"#utility.yul\":6508:6513   */\n      dup3\n        /* \"#utility.yul\":6490:6514   */\n      tag_110\n      jump\t// in\n    tag_181:\n        /* \"#utility.yul\":6479:6514   */\n      swap1\n      pop\n        /* \"#utility.yul\":6469:6520   */\n      swap2\n      swap1\n      pop\n      jump\t// out\n        /* \"#utility.yul\":6526:6652   */\n    tag_175:\n        /* \"#utility.yul\":6563:6570   */\n      0x00\n        /* \"#utility.yul\":6603:6645   */\n      0xffffffffffffffffffffffffffffffffffffffff\n        /* \"#utility.yul\":6596:6601   */\n      dup3\n        /* \"#utility.yul\":6592:6646   */\n      and\n        /* \"#utility.yul\":6581:6646   */\n      swap1\n      pop\n        /* \"#utility.yul\":6571:6652   */\n      swap2\n      swap1\n      pop\n      jump\t// out\n        /* \"#utility.yul\":6658:6735   */\n    tag_128:\n        /* \"#utility.yul\":6695:6702   */\n      0x00\n        /* \"#utility.yul\":6724:6729   */\n      dup2\n        /* \"#utility.yul\":6713:6729   */\n      swap1\n      pop\n        /* \"#utility.yul\":6703:6735   */\n      swap2\n      swap1\n      pop\n      jump\t// out\n        /* \"#utility.yul\":6741:6897   */\n    tag_118:\n        /* \"#utility.yul\":6806:6815   */\n      0x00\n        /* \"#utility.yul\":6839:6891   */\n      tag_185\n        /* \"#utility.yul\":6885:6890   */\n      dup3\n        /* \"#utility.yul\":6839:6891   */\n      tag_186\n      jump\t// in\n    tag_185:\n        /* \"#utility.yul\":6826:6891   */\n      swap1\n      pop\n        /* \"#utility.yul\":6816:6897   */\n      swap2\n      swap1\n      pop\n      jump\t// out\n        /* \"#utility.yul\":6903:7031   */\n    tag_186:\n        /* \"#utility.yul\":6968:6977   */\n      0x00\n        /* \"#utility.yul\":7001:7025   */\n      tag_188\n        /* \"#utility.yul\":7019:7024   */\n      dup3\n        /* \"#utility.yul\":7001:7025   */\n      tag_175\n      jump\t// in\n    tag_188:\n        /* \"#utility.yul\":6988:7025   */\n      swap1\n      pop\n        /* \"#utility.yul\":6978:7031   */\n      swap2\n      swap1\n      pop\n      jump\t// out\n        /* \"#utility.yul\":7037:7270   */\n    tag_80:\n        /* \"#utility.yul\":7076:7079   */\n      0x00\n        /* \"#utility.yul\":7099:7123   */\n      tag_190\n        /* \"#utility.yul\":7117:7122   */\n      dup3\n        /* \"#utility.yul\":7099:7123   */\n      tag_128\n      jump\t// in\n    tag_190:\n        /* \"#utility.yul\":7090:7123   */\n      swap2\n      pop\n        /* \"#utility.yul\":7145:7211   */\n      0xffffffffffffffffffffffffffffffffffffffffffffffffffffffffffffffff\n        /* \"#utility.yul\":7138:7143   */\n      dup3\n        /* \"#utility.yul\":7135:7212   */\n      eq\n        /* \"#utility.yul\":7132:7134   */\n      iszero\n      tag_191\n      jumpi\n        /* \"#utility.yul\":7215:7233   */\n      tag_192\n      tag_156\n      jump\t// in\n    tag_192:\n        /* \"#utility.yul\":7132:7134   */\n    tag_191:\n        /* \"#utility.yul\":7262:7263   */\n      0x01\n        /* \"#utility.yul\":7255:7260   */\n      dup3\n        /* \"#utility.yul\":7251:7264   */\n      add\n        /* \"#utility.yul\":7244:7264   */\n      swap1\n      pop\n        /* \"#utility.yul\":7080:7270   */\n      swap2\n      swap1\n      pop\n      jump\t// out\n        /* \"#utility.yul\":7276:7456   */\n    tag_156:\n        /* \"#utility.yul\":7324:7401   */\n      0x4e487b7100000000000000000000000000000000000000000000000000000000\n        /* \"#utility.yul\":7321:7322   */\n      0x00\n        /* \"#utility.yul\":7314:7402   */\n      mstore\n        /* \"#utility.yul\":7421:7425   */\n      0x11\n        /* \"#utility.yul\":7418:7419   */\n      0x04\n        /* \"#utility.yul\":7411:7426   */\n      mstore\n        /* \"#utility.yul\":7445:7449   */\n      0x24\n        /* \"#utility.yul\":7442:7443   */\n      0x00\n        /* \"#utility.yul\":7435:7450   */\n      revert\n        /* \"#utility.yul\":7462:7642   */\n    tag_162:\n        /* \"#utility.yul\":7510:7587   */\n      0x4e487b7100000000000000000000000000000000000000000000000000000000\n        /* \"#utility.yul\":7507:7508   */\n      0x00\n        /* \"#utility.yul\":7500:7588   */\n      mstore\n        /* \"#utility.yul\":7607:7611   */\n      0x12\n        /* \"#utility.yul\":7604:7605   */\n      0x04\n        /* \"#utility.yul\":7597:7612   */\n      mstore\n        /* \"#utility.yul\":7631:7635   */\n      0x24\n        /* \"#utility.yul\":7628:7629   */\n      0x00\n        /* \"#utility.yul\":7621:7636   */\n      revert\n        /* \"#utility.yul\":7648:7829   */\n    tag_124:\n        /* \"#utility.yul\":7788:7821   */\n      0x5265656e7472616e637947756172643a207265656e7472616e742063616c6c00\n        /* \"#utility.yul\":7784:7785   */\n      0x00\n        /* \"#utility.yul\":7776:7782   */\n      dup3\n        /* \"#utility.yul\":7772:7786   */\n      add\n        /* \"#utility.yul\":7765:7822   */\n      mstore\n        /* \"#utility.yul\":7754:7829   */\n      pop\n      jump\t// out\n        /* \"#utility.yul\":7835:7987   */\n    tag_90:\n        /* \"#utility.yul\":7923:7962   */\n      tag_197\n        /* \"#utility.yul\":7956:7961   */\n      dup2\n        /* \"#utility.yul\":7923:7962   */\n      tag_179\n      jump\t// in\n    tag_197:\n        /* \"#utility.yul\":7916:7921   */\n      dup2\n        /* \"#utility.yul\":7913:7963   */\n      eq\n        /* \"#utility.yul\":7903:7905   */\n      tag_198\n      jumpi\n        /* \"#utility.yul\":7977:7978   */\n      0x00\n        /* \"#utility.yul\":7974:7975   */\n      dup1\n        /* \"#utility.yul\":7967:7979   */\n      revert\n        /* \"#utility.yul\":7903:7905   */\n    tag_198:\n        /* \"#utility.yul\":7893:7987   */\n      pop\n      jump\t// out\n        /* \"#utility.yul\":7993:8115   */\n    tag_94:\n        /* \"#utility.yul\":8066:8090   */\n      tag_200\n        /* \"#utility.yul\":8084:8089   */\n      dup2\n        /* \"#utility.yul\":8066:8090   */\n      tag_128\n      jump\t// in\n    tag_200:\n        /* \"#utility.yul\":8059:8064   */\n      dup2\n        /* \"#utility.yul\":8056:8091   */\n      eq\n        /* \"#utility.yul\":8046:8048   */\n      tag_201\n      jumpi\n        /* \"#utility.yul\":8105:8106   */\n      0x00\n        /* \"#utility.yul\":8102:8103   */\n      dup1\n        /* \"#utility.yul\":8095:8107   */\n      revert\n        /* \"#utility.yul\":8046:8048   */\n    tag_201:\n        /* \"#utility.yul\":8036:8115   */\n      pop\n      jump\t// out\n\n    auxdata: 0xa2646970667358221220a6f1cbed5a82acc22aac7f014e1640272c19d63ebc95f73db5f079b86fb22a0964736f6c63430008040033\n}\n",
				"bytecode": {
					"linkReferences": {},
					"object": "60c060405234801561001057600080fd5b50604051610eef380380610eef83398181016040528101906100329190610094565b60016000819055503373ffffffffffffffffffffffffffffffffffffffff1660808173ffffffffffffffffffffffffffffffffffffffff1660601b815250508060a08181525050506100de565b60008151905061008e816100c7565b92915050565b6000602082840312156100a657600080fd5b60006100b48482850161007f565b91505092915050565b6000819050919050565b6100d0816100bd565b81146100db57600080fd5b50565b60805160601c60a051610ddb610114600039600081816101e601526102970152600081816101bc015261041b0152610ddb6000f3fe6080604052600436106100705760003560e01c8063bfb231d21161004e578063bfb231d2146100f6578063ca7dd37514610138578063d38ea5bf14610175578063fa00afc71461019157610070565b806365e17c9d146100755780636bfb0d01146100a05780637fd6f15c146100cb575b600080fd5b34801561008157600080fd5b5061008a6101ba565b60405161009791906109cc565b60405180910390f35b3480156100ac57600080fd5b506100b56101de565b6040516100c29190610a3e565b60405180910390f35b3480156100d757600080fd5b506100e06101e4565b6040516100ed9190610a3e565b60405180910390f35b34801561010257600080fd5b5061011d60048036038101906101189190610935565b610208565b60405161012f96959493929190610a59565b60405180910390f35b34801561014457600080fd5b5061015f600480360381019061015a9190610935565b610291565b60405161016c9190610a3e565b60405180910390f35b61018f600480360381019061018a9190610935565b6102f4565b005b34801561019d57600080fd5b506101b860048036038101906101b391906108e6565b610620565b005b7f000000000000000000000000000000000000000000000000000000000000000081565b60015481565b7f000000000000000000000000000000000000000000000000000000000000000081565b60026020528060005260406000206000915090508060000154908060010160009054906101000a900473ffffffffffffffffffffffffffffffffffffffff16908060020154908060030154908060040160009054906101000a900473ffffffffffffffffffffffffffffffffffffffff16908060040160149054906101000a900460ff16905086565b600060647f000000000000000000000000000000000000000000000000000000000000000060646102c29190610b02565b60026000858152602001908152602001600020600301546102e39190610b89565b6102ed9190610b58565b9050919050565b6002600054141561033a576040517f08c379a000000000000000000000000000000000000000000000000000000000815260040161033190610a1e565b60405180910390fd5b6002600081905550600061034d82610291565b9050600060026000848152602001908152602001600020905060008311801561037857506001548311155b61038157600080fd5b8134101561038e57600080fd5b8060040160149054906101000a900460ff16156103aa57600080fd5b8060040160009054906101000a900473ffffffffffffffffffffffffffffffffffffffff1673ffffffffffffffffffffffffffffffffffffffff166108fc82600301549081150290604051600060405180830381858888f19350505050158015610418573d6000803e3d6000fd5b507f000000000000000000000000000000000000000000000000000000000000000073ffffffffffffffffffffffffffffffffffffffff166108fc8260030154846104639190610be3565b9081150290604051600060405180830381858888f1935050505015801561048e573d6000803e3d6000fd5b5060018160040160146101000a81548160ff0219169083151502179055508060010160009054906101000a900473ffffffffffffffffffffffffffffffffffffffff1673ffffffffffffffffffffffffffffffffffffffff166323b872dd303384600201546040518463ffffffff1660e01b8152600401610511939291906109e7565b600060405180830381600087803b15801561052b57600080fd5b505af115801561053f573d6000803e3d6000fd5b505050503373ffffffffffffffffffffffffffffffffffffffff168160040160009054906101000a900473ffffffffffffffffffffffffffffffffffffffff1673ffffffffffffffffffffffffffffffffffffffff168260010160009054906101000a900473ffffffffffffffffffffffffffffffffffffffff1673ffffffffffffffffffffffffffffffffffffffff167f8b4c9c8a607d67b321582dd8461041b1dc2ceeca70c8b7f37f8e02095cf2e76d868560020154866003015460405161060b93929190610aba565b60405180910390a45050600160008190555050565b60026000541415610666576040517f08c379a000000000000000000000000000000000000000000000000000000000815260040161065d90610a1e565b60405180910390fd5b60026000819055506000811161067b57600080fd5b6001600081548092919061068e90610ca7565b91905055508273ffffffffffffffffffffffffffffffffffffffff166323b872dd3330856040518463ffffffff1660e01b81526004016106d0939291906109e7565b600060405180830381600087803b1580156106ea57600080fd5b505af11580156106fe573d6000803e3d6000fd5b505050506040518060c0016040528060015481526020018473ffffffffffffffffffffffffffffffffffffffff1681526020018381526020018281526020013373ffffffffffffffffffffffffffffffffffffffff168152602001600015158152506002600060015481526020019081526020016000206000820151816000015560208201518160010160006101000a81548173ffffffffffffffffffffffffffffffffffffffff021916908373ffffffffffffffffffffffffffffffffffffffff160217905550604082015181600201556060820151816003015560808201518160040160006101000a81548173ffffffffffffffffffffffffffffffffffffffff021916908373ffffffffffffffffffffffffffffffffffffffff16021790555060a08201518160040160146101000a81548160ff0219169083151502179055509050503373ffffffffffffffffffffffffffffffffffffffff168373ffffffffffffffffffffffffffffffffffffffff167f655a0cf9c8db81512be9a76dc1c5ae5380b8816ce6ad659cd61b715e2999d59a60015485856040516108a793929190610aba565b60405180910390a36001600081905550505050565b6000813590506108cb81610d77565b92915050565b6000813590506108e081610d8e565b92915050565b6000806000606084860312156108fb57600080fd5b6000610909868287016108bc565b935050602061091a868287016108d1565b925050604061092b868287016108d1565b9150509250925092565b60006020828403121561094757600080fd5b6000610955848285016108d1565b91505092915050565b61096781610c29565b82525050565b61097681610c17565b82525050565b61098581610c3b565b82525050565b61099481610c83565b82525050565b60006109a7601f83610af1565b91506109b282610d4e565b602082019050919050565b6109c681610c79565b82525050565b60006020820190506109e1600083018461095e565b92915050565b60006060820190506109fc600083018661096d565b610a09602083018561096d565b610a1660408301846109bd565b949350505050565b60006020820190508181036000830152610a378161099a565b9050919050565b6000602082019050610a5360008301846109bd565b92915050565b600060c082019050610a6e60008301896109bd565b610a7b602083018861098b565b610a8860408301876109bd565b610a9560608301866109bd565b610aa2608083018561095e565b610aaf60a083018461097c565b979650505050505050565b6000606082019050610acf60008301866109bd565b610adc60208301856109bd565b610ae960408301846109bd565b949350505050565b600082825260208201905092915050565b6000610b0d82610c79565b9150610b1883610c79565b9250827fffffffffffffffffffffffffffffffffffffffffffffffffffffffffffffffff03821115610b4d57610b4c610cf0565b5b828201905092915050565b6000610b6382610c79565b9150610b6e83610c79565b925082610b7e57610b7d610d1f565b5b828204905092915050565b6000610b9482610c79565b9150610b9f83610c79565b9250817fffffffffffffffffffffffffffffffffffffffffffffffffffffffffffffffff0483118215151615610bd857610bd7610cf0565b5b828202905092915050565b6000610bee82610c79565b9150610bf983610c79565b925082821015610c0c57610c0b610cf0565b5b828203905092915050565b6000610c2282610c59565b9050919050565b6000610c3482610c59565b9050919050565b60008115159050919050565b6000610c5282610c17565b9050919050565b600073ffffffffffffffffffffffffffffffffffffffff82169050919050565b6000819050919050565b6000610c8e82610c95565b9050919050565b6000610ca082610c59565b9050919050565b6000610cb282610c79565b91507fffffffffffffffffffffffffffffffffffffffffffffffffffffffffffffffff821415610ce557610ce4610cf0565b5b600182019050919050565b7f4e487b7100000000000000000000000000000000000000000000000000000000600052601160045260246000fd5b7f4e487b7100000000000000000000000000000000000000000000000000000000600052601260045260246000fd5b7f5265656e7472616e637947756172643a207265656e7472616e742063616c6c00600082015250565b610d8081610c47565b8114610d8b57600080fd5b50565b610d9781610c79565b8114610da257600080fd5b5056fea2646970667358221220a6f1cbed5a82acc22aac7f014e1640272c19d63ebc95f73db5f079b86fb22a0964736f6c63430008040033",
					"opcodes": "PUSH1 0xC0 PUSH1 0x40 MSTORE CALLVALUE DUP1 ISZERO PUSH2 0x10 JUMPI PUSH1 0x0 DUP1 REVERT JUMPDEST POP PUSH1 0x40 MLOAD PUSH2 0xEEF CODESIZE SUB DUP1 PUSH2 0xEEF DUP4 CODECOPY DUP2 DUP2 ADD PUSH1 0x40 MSTORE DUP2 ADD SWAP1 PUSH2 0x32 SWAP2 SWAP1 PUSH2 0x94 JUMP JUMPDEST PUSH1 0x1 PUSH1 0x0 DUP2 SWAP1 SSTORE POP CALLER PUSH20 0xFFFFFFFFFFFFFFFFFFFFFFFFFFFFFFFFFFFFFFFF AND PUSH1 0x80 DUP2 PUSH20 0xFFFFFFFFFFFFFFFFFFFFFFFFFFFFFFFFFFFFFFFF AND PUSH1 0x60 SHL DUP2 MSTORE POP POP DUP1 PUSH1 0xA0 DUP2 DUP2 MSTORE POP POP POP PUSH2 0xDE JUMP JUMPDEST PUSH1 0x0 DUP2 MLOAD SWAP1 POP PUSH2 0x8E DUP2 PUSH2 0xC7 JUMP JUMPDEST SWAP3 SWAP2 POP POP JUMP JUMPDEST PUSH1 0x0 PUSH1 0x20 DUP3 DUP5 SUB SLT ISZERO PUSH2 0xA6 JUMPI PUSH1 0x0 DUP1 REVERT JUMPDEST PUSH1 0x0 PUSH2 0xB4 DUP5 DUP3 DUP6 ADD PUSH2 0x7F JUMP JUMPDEST SWAP2 POP POP SWAP3 SWAP2 POP POP JUMP JUMPDEST PUSH1 0x0 DUP2 SWAP1 POP SWAP2 SWAP1 POP JUMP JUMPDEST PUSH2 0xD0 DUP2 PUSH2 0xBD JUMP JUMPDEST DUP2 EQ PUSH2 0xDB JUMPI PUSH1 0x0 DUP1 REVERT JUMPDEST POP JUMP JUMPDEST PUSH1 0x80 MLOAD PUSH1 0x60 SHR PUSH1 0xA0 MLOAD PUSH2 0xDDB PUSH2 0x114 PUSH1 0x0 CODECOPY PUSH1 0x0 DUP2 DUP2 PUSH2 0x1E6 ADD MSTORE PUSH2 0x297 ADD MSTORE PUSH1 0x0 DUP2 DUP2 PUSH2 0x1BC ADD MSTORE PUSH2 0x41B ADD MSTORE PUSH2 0xDDB PUSH1 0x0 RETURN INVALID PUSH1 0x80 PUSH1 0x40 MSTORE PUSH1 0x4 CALLDATASIZE LT PUSH2 0x70 JUMPI PUSH1 0x0 CALLDATALOAD PUSH1 0xE0 SHR DUP1 PUSH4 0xBFB231D2 GT PUSH2 0x4E JUMPI DUP1 PUSH4 0xBFB231D2 EQ PUSH2 0xF6 JUMPI DUP1 PUSH4 0xCA7DD375 EQ PUSH2 0x138 JUMPI DUP1 PUSH4 0xD38EA5BF EQ PUSH2 0x175 JUMPI DUP1 PUSH4 0xFA00AFC7 EQ PUSH2 0x191 JUMPI PUSH2 0x70 JUMP JUMPDEST DUP1 PUSH4 0x65E17C9D EQ PUSH2 0x75 JUMPI DUP1 PUSH4 0x6BFB0D01 EQ PUSH2 0xA0 JUMPI DUP1 PUSH4 0x7FD6F15C EQ PUSH2 0xCB JUMPI JUMPDEST PUSH1 0x0 DUP1 REVERT JUMPDEST CALLVALUE DUP1 ISZERO PUSH2 0x81 JUMPI PUSH1 0x0 DUP1 REVERT JUMPDEST POP PUSH2 0x8A PUSH2 0x1BA JUMP JUMPDEST PUSH1 0x40 MLOAD PUSH2 0x97 SWAP2 SWAP1 PUSH2 0x9CC JUMP JUMPDEST PUSH1 0x40 MLOAD DUP1 SWAP2 SUB SWAP1 RETURN JUMPDEST CALLVALUE DUP1 ISZERO PUSH2 0xAC JUMPI PUSH1 0x0 DUP1 REVERT JUMPDEST POP PUSH2 0xB5 PUSH2 0x1DE JUMP JUMPDEST PUSH1 0x40 MLOAD PUSH2 0xC2 SWAP2 SWAP1 PUSH2 0xA3E JUMP JUMPDEST PUSH1 0x40 MLOAD DUP1 SWAP2 SUB SWAP1 RETURN JUMPDEST CALLVALUE DUP1 ISZERO PUSH2 0xD7 JUMPI PUSH1 0x0 DUP1 REVERT JUMPDEST POP PUSH2 0xE0 PUSH2 0x1E4 JUMP JUMPDEST PUSH1 0x40 MLOAD PUSH2 0xED SWAP2 SWAP1 PUSH2 0xA3E JUMP JUMPDEST PUSH1 0x40 MLOAD DUP1 SWAP2 SUB SWAP1 RETURN JUMPDEST CALLVALUE DUP1 ISZERO PUSH2 0x102 JUMPI PUSH1 0x0 DUP1 REVERT JUMPDEST POP PUSH2 0x11D PUSH1 0x4 DUP1 CALLDATASIZE SUB DUP2 ADD SWAP1 PUSH2 0x118 SWAP2 SWAP1 PUSH2 0x935 JUMP JUMPDEST PUSH2 0x208 JUMP JUMPDEST PUSH1 0x40 MLOAD PUSH2 0x12F SWAP7 SWAP6 SWAP5 SWAP4 SWAP3 SWAP2 SWAP1 PUSH2 0xA59 JUMP JUMPDEST PUSH1 0x40 MLOAD DUP1 SWAP2 SUB SWAP1 RETURN JUMPDEST CALLVALUE DUP1 ISZERO PUSH2 0x144 JUMPI PUSH1 0x0 DUP1 REVERT JUMPDEST POP PUSH2 0x15F PUSH1 0x4 DUP1 CALLDATASIZE SUB DUP2 ADD SWAP1 PUSH2 0x15A SWAP2 SWAP1 PUSH2 0x935 JUMP JUMPDEST PUSH2 0x291 JUMP JUMPDEST PUSH1 0x40 MLOAD PUSH2 0x16C SWAP2 SWAP1 PUSH2 0xA3E JUMP JUMPDEST PUSH1 0x40 MLOAD DUP1 SWAP2 SUB SWAP1 RETURN JUMPDEST PUSH2 0x18F PUSH1 0x4 DUP1 CALLDATASIZE SUB DUP2 ADD SWAP1 PUSH2 0x18A SWAP2 SWAP1 PUSH2 0x935 JUMP JUMPDEST PUSH2 0x2F4 JUMP JUMPDEST STOP JUMPDEST CALLVALUE DUP1 ISZERO PUSH2 0x19D JUMPI PUSH1 0x0 DUP1 REVERT JUMPDEST POP PUSH2 0x1B8 PUSH1 0x4 DUP1 CALLDATASIZE SUB DUP2 ADD SWAP1 PUSH2 0x1B3 SWAP2 SWAP1 PUSH2 0x8E6 JUMP JUMPDEST PUSH2 0x620 JUMP JUMPDEST STOP JUMPDEST PUSH32 0x0 DUP2 JUMP JUMPDEST PUSH1 0x1 SLOAD DUP2 JUMP JUMPDEST PUSH32 0x0 DUP2 JUMP JUMPDEST PUSH1 0x2 PUSH1 0x20 MSTORE DUP1 PUSH1 0x0 MSTORE PUSH1 0x40 PUSH1 0x0 KECCAK256 PUSH1 0x0 SWAP2 POP SWAP1 POP DUP1 PUSH1 0x0 ADD SLOAD SWAP1 DUP1 PUSH1 0x1 ADD PUSH1 0x0 SWAP1 SLOAD SWAP1 PUSH2 0x100 EXP SWAP1 DIV PUSH20 0xFFFFFFFFFFFFFFFFFFFFFFFFFFFFFFFFFFFFFFFF AND SWAP1 DUP1 PUSH1 0x2 ADD SLOAD SWAP1 DUP1 PUSH1 0x3 ADD SLOAD SWAP1 DUP1 PUSH1 0x4 ADD PUSH1 0x0 SWAP1 SLOAD SWAP1 PUSH2 0x100 EXP SWAP1 DIV PUSH20 0xFFFFFFFFFFFFFFFFFFFFFFFFFFFFFFFFFFFFFFFF AND SWAP1 DUP1 PUSH1 0x4 ADD PUSH1 0x14 SWAP1 SLOAD SWAP1 PUSH2 0x100 EXP SWAP1 DIV PUSH1 0xFF AND SWAP1 POP DUP7 JUMP JUMPDEST PUSH1 0x0 PUSH1 0x64 PUSH32 0x0 PUSH1 0x64 PUSH2 0x2C2 SWAP2 SWAP1 PUSH2 0xB02 JUMP JUMPDEST PUSH1 0x2 PUSH1 0x0 DUP6 DUP2 MSTORE PUSH1 0x20 ADD SWAP1 DUP2 MSTORE PUSH1 0x20 ADD PUSH1 0x0 KECCAK256 PUSH1 0x3 ADD SLOAD PUSH2 0x2E3 SWAP2 SWAP1 PUSH2 0xB89 JUMP JUMPDEST PUSH2 0x2ED SWAP2 SWAP1 PUSH2 0xB58 JUMP JUMPDEST SWAP1 POP SWAP2 SWAP1 POP JUMP JUMPDEST PUSH1 0x2 PUSH1 0x0 SLOAD EQ ISZERO PUSH2 0x33A JUMPI PUSH1 0x40 MLOAD PUSH32 0x8C379A000000000000000000000000000000000000000000000000000000000 DUP2 MSTORE PUSH1 0x4 ADD PUSH2 0x331 SWAP1 PUSH2 0xA1E JUMP JUMPDEST PUSH1 0x40 MLOAD DUP1 SWAP2 SUB SWAP1 REVERT JUMPDEST PUSH1 0x2 PUSH1 0x0 DUP2 SWAP1 SSTORE POP PUSH1 0x0 PUSH2 0x34D DUP3 PUSH2 0x291 JUMP JUMPDEST SWAP1 POP PUSH1 0x0 PUSH1 0x2 PUSH1 0x0 DUP5 DUP2 MSTORE PUSH1 0x20 ADD SWAP1 DUP2 MSTORE PUSH1 0x20 ADD PUSH1 0x0 KECCAK256 SWAP1 POP PUSH1 0x0 DUP4 GT DUP1 ISZERO PUSH2 0x378 JUMPI POP PUSH1 0x1 SLOAD DUP4 GT ISZERO JUMPDEST PUSH2 0x381 JUMPI PUSH1 0x0 DUP1 REVERT JUMPDEST DUP2 CALLVALUE LT ISZERO PUSH2 0x38E JUMPI PUSH1 0x0 DUP1 REVERT JUMPDEST DUP1 PUSH1 0x4 ADD PUSH1 0x14 SWAP1 SLOAD SWAP1 PUSH2 0x100 EXP SWAP1 DIV PUSH1 0xFF AND ISZERO PUSH2 0x3AA JUMPI PUSH1 0x0 DUP1 REVERT JUMPDEST DUP1 PUSH1 0x4 ADD PUSH1 0x0 SWAP1 SLOAD SWAP1 PUSH2 0x100 EXP SWAP1 DIV PUSH20 0xFFFFFFFFFFFFFFFFFFFFFFFFFFFFFFFFFFFFFFFF AND PUSH20 0xFFFFFFFFFFFFFFFFFFFFFFFFFFFFFFFFFFFFFFFF AND PUSH2 0x8FC DUP3 PUSH1 0x3 ADD SLOAD SWAP1 DUP2 ISZERO MUL SWAP1 PUSH1 0x40 MLOAD PUSH1 0x0 PUSH1 0x40 MLOAD DUP1 DUP4 SUB DUP2 DUP6 DUP9 DUP9 CALL SWAP4 POP POP POP POP ISZERO DUP1 ISZERO PUSH2 0x418 JUMPI RETURNDATASIZE PUSH1 0x0 DUP1 RETURNDATACOPY RETURNDATASIZE PUSH1 0x0 REVERT JUMPDEST POP PUSH32 0x0 PUSH20 0xFFFFFFFFFFFFFFFFFFFFFFFFFFFFFFFFFFFFFFFF AND PUSH2 0x8FC DUP3 PUSH1 0x3 ADD SLOAD DUP5 PUSH2 0x463 SWAP2 SWAP1 PUSH2 0xBE3 JUMP JUMPDEST SWAP1 DUP2 ISZERO MUL SWAP1 PUSH1 0x40 MLOAD PUSH1 0x0 PUSH1 0x40 MLOAD DUP1 DUP4 SUB DUP2 DUP6 DUP9 DUP9 CALL SWAP4 POP POP POP POP ISZERO DUP1 ISZERO PUSH2 0x48E JUMPI RETURNDATASIZE PUSH1 0x0 DUP1 RETURNDATACOPY RETURNDATASIZE PUSH1 0x0 REVERT JUMPDEST POP PUSH1 0x1 DUP2 PUSH1 0x4 ADD PUSH1 0x14 PUSH2 0x100 EXP DUP2 SLOAD DUP2 PUSH1 0xFF MUL NOT AND SWAP1 DUP4 ISZERO ISZERO MUL OR SWAP1 SSTORE POP DUP1 PUSH1 0x1 ADD PUSH1 0x0 SWAP1 SLOAD SWAP1 PUSH2 0x100 EXP SWAP1 DIV PUSH20 0xFFFFFFFFFFFFFFFFFFFFFFFFFFFFFFFFFFFFFFFF AND PUSH20 0xFFFFFFFFFFFFFFFFFFFFFFFFFFFFFFFFFFFFFFFF AND PUSH4 0x23B872DD ADDRESS CALLER DUP5 PUSH1 0x2 ADD SLOAD PUSH1 0x40 MLOAD DUP5 PUSH4 0xFFFFFFFF AND PUSH1 0xE0 SHL DUP2 MSTORE PUSH1 0x4 ADD PUSH2 0x511 SWAP4 SWAP3 SWAP2 SWAP1 PUSH2 0x9E7 JUMP JUMPDEST PUSH1 0x0 PUSH1 0x40 MLOAD DUP1 DUP4 SUB DUP2 PUSH1 0x0 DUP8 DUP1 EXTCODESIZE ISZERO DUP1 ISZERO PUSH2 0x52B JUMPI PUSH1 0x0 DUP1 REVERT JUMPDEST POP GAS CALL ISZERO DUP1 ISZERO PUSH2 0x53F JUMPI RETURNDATASIZE PUSH1 0x0 DUP1 RETURNDATACOPY RETURNDATASIZE PUSH1 0x0 REVERT JUMPDEST POP POP POP POP CALLER PUSH20 0xFFFFFFFFFFFFFFFFFFFFFFFFFFFFFFFFFFFFFFFF AND DUP2 PUSH1 0x4 ADD PUSH1 0x0 SWAP1 SLOAD SWAP1 PUSH2 0x100 EXP SWAP1 DIV PUSH20 0xFFFFFFFFFFFFFFFFFFFFFFFFFFFFFFFFFFFFFFFF AND PUSH20 0xFFFFFFFFFFFFFFFFFFFFFFFFFFFFFFFFFFFFFFFF AND DUP3 PUSH1 0x1 ADD PUSH1 0x0 SWAP1 SLOAD SWAP1 PUSH2 0x100 EXP SWAP1 DIV PUSH20 0xFFFFFFFFFFFFFFFFFFFFFFFFFFFFFFFFFFFFFFFF AND PUSH20 0xFFFFFFFFFFFFFFFFFFFFFFFFFFFFFFFFFFFFFFFF AND PUSH32 0x8B4C9C8A607D67B321582DD8461041B1DC2CEECA70C8B7F37F8E02095CF2E76D DUP7 DUP6 PUSH1 0x2 ADD SLOAD DUP7 PUSH1 0x3 ADD SLOAD PUSH1 0x40 MLOAD PUSH2 0x60B SWAP4 SWAP3 SWAP2 SWAP1 PUSH2 0xABA JUMP JUMPDEST PUSH1 0x40 MLOAD DUP1 SWAP2 SUB SWAP1 LOG4 POP POP PUSH1 0x1 PUSH1 0x0 DUP2 SWAP1 SSTORE POP POP JUMP JUMPDEST PUSH1 0x2 PUSH1 0x0 SLOAD EQ ISZERO PUSH2 0x666 JUMPI PUSH1 0x40 MLOAD PUSH32 0x8C379A000000000000000000000000000000000000000000000000000000000 DUP2 MSTORE PUSH1 0x4 ADD PUSH2 0x65D SWAP1 PUSH2 0xA1E JUMP JUMPDEST PUSH1 0x40 MLOAD DUP1 SWAP2 SUB SWAP1 REVERT JUMPDEST PUSH1 0x2 PUSH1 0x0 DUP2 SWAP1 SSTORE POP PUSH1 0x0 DUP2 GT PUSH2 0x67B JUMPI PUSH1 0x0 DUP1 REVERT JUMPDEST PUSH1 0x1 PUSH1 0x0 DUP2 SLOAD DUP1 SWAP3 SWAP2 SWAP1 PUSH2 0x68E SWAP1 PUSH2 0xCA7 JUMP JUMPDEST SWAP2 SWAP1 POP SSTORE POP DUP3 PUSH20 0xFFFFFFFFFFFFFFFFFFFFFFFFFFFFFFFFFFFFFFFF AND PUSH4 0x23B872DD CALLER ADDRESS DUP6 PUSH1 0x40 MLOAD DUP5 PUSH4 0xFFFFFFFF AND PUSH1 0xE0 SHL DUP2 MSTORE PUSH1 0x4 ADD PUSH2 0x6D0 SWAP4 SWAP3 SWAP2 SWAP1 PUSH2 0x9E7 JUMP JUMPDEST PUSH1 0x0 PUSH1 0x40 MLOAD DUP1 DUP4 SUB DUP2 PUSH1 0x0 DUP8 DUP1 EXTCODESIZE ISZERO DUP1 ISZERO PUSH2 0x6EA JUMPI PUSH1 0x0 DUP1 REVERT JUMPDEST POP GAS CALL ISZERO DUP1 ISZERO PUSH2 0x6FE JUMPI RETURNDATASIZE PUSH1 0x0 DUP1 RETURNDATACOPY RETURNDATASIZE PUSH1 0x0 REVERT JUMPDEST POP POP POP POP PUSH1 0x40 MLOAD DUP1 PUSH1 0xC0 ADD PUSH1 0x40 MSTORE DUP1 PUSH1 0x1 SLOAD DUP2 MSTORE PUSH1 0x20 ADD DUP5 PUSH20 0xFFFFFFFFFFFFFFFFFFFFFFFFFFFFFFFFFFFFFFFF AND DUP2 MSTORE PUSH1 0x20 ADD DUP4 DUP2 MSTORE PUSH1 0x20 ADD DUP3 DUP2 MSTORE PUSH1 0x20 ADD CALLER PUSH20 0xFFFFFFFFFFFFFFFFFFFFFFFFFFFFFFFFFFFFFFFF AND DUP2 MSTORE PUSH1 0x20 ADD PUSH1 0x0 ISZERO ISZERO DUP2 MSTORE POP PUSH1 0x2 PUSH1 0x0 PUSH1 0x1 SLOAD DUP2 MSTORE PUSH1 0x20 ADD SWAP1 DUP2 MSTORE PUSH1 0x20 ADD PUSH1 0x0 KECCAK256 PUSH1 0x0 DUP3 ADD MLOAD DUP2 PUSH1 0x0 ADD SSTORE PUSH1 0x20 DUP3 ADD MLOAD DUP2 PUSH1 0x1 ADD PUSH1 0x0 PUSH2 0x100 EXP DUP2 SLOAD DUP2 PUSH20 0xFFFFFFFFFFFFFFFFFFFFFFFFFFFFFFFFFFFFFFFF MUL NOT AND SWAP1 DUP4 PUSH20 0xFFFFFFFFFFFFFFFFFFFFFFFFFFFFFFFFFFFFFFFF AND MUL OR SWAP1 SSTORE POP PUSH1 0x40 DUP3 ADD MLOAD DUP2 PUSH1 0x2 ADD SSTORE PUSH1 0x60 DUP3 ADD MLOAD DUP2 PUSH1 0x3 ADD SSTORE PUSH1 0x80 DUP3 ADD MLOAD DUP2 PUSH1 0x4 ADD PUSH1 0x0 PUSH2 0x100 EXP DUP2 SLOAD DUP2 PUSH20 0xFFFFFFFFFFFFFFFFFFFFFFFFFFFFFFFFFFFFFFFF MUL NOT AND SWAP1 DUP4 PUSH20 0xFFFFFFFFFFFFFFFFFFFFFFFFFFFFFFFFFFFFFFFF AND MUL OR SWAP1 SSTORE POP PUSH1 0xA0 DUP3 ADD MLOAD DUP2 PUSH1 0x4 ADD PUSH1 0x14 PUSH2 0x100 EXP DUP2 SLOAD DUP2 PUSH1 0xFF MUL NOT AND SWAP1 DUP4 ISZERO ISZERO MUL OR SWAP1 SSTORE POP SWAP1 POP POP CALLER PUSH20 0xFFFFFFFFFFFFFFFFFFFFFFFFFFFFFFFFFFFFFFFF AND DUP4 PUSH20 0xFFFFFFFFFFFFFFFFFFFFFFFFFFFFFFFFFFFFFFFF AND PUSH32 0x655A0CF9C8DB81512BE9A76DC1C5AE5380B8816CE6AD659CD61B715E2999D59A PUSH1 0x1 SLOAD DUP6 DUP6 PUSH1 0x40 MLOAD PUSH2 0x8A7 SWAP4 SWAP3 SWAP2 SWAP1 PUSH2 0xABA JUMP JUMPDEST PUSH1 0x40 MLOAD DUP1 SWAP2 SUB SWAP1 LOG3 PUSH1 0x1 PUSH1 0x0 DUP2 SWAP1 SSTORE POP POP POP POP JUMP JUMPDEST PUSH1 0x0 DUP2 CALLDATALOAD SWAP1 POP PUSH2 0x8CB DUP2 PUSH2 0xD77 JUMP JUMPDEST SWAP3 SWAP2 POP POP JUMP JUMPDEST PUSH1 0x0 DUP2 CALLDATALOAD SWAP1 POP PUSH2 0x8E0 DUP2 PUSH2 0xD8E JUMP JUMPDEST SWAP3 SWAP2 POP POP JUMP JUMPDEST PUSH1 0x0 DUP1 PUSH1 0x0 PUSH1 0x60 DUP5 DUP7 SUB SLT ISZERO PUSH2 0x8FB JUMPI PUSH1 0x0 DUP1 REVERT JUMPDEST PUSH1 0x0 PUSH2 0x909 DUP7 DUP3 DUP8 ADD PUSH2 0x8BC JUMP JUMPDEST SWAP4 POP POP PUSH1 0x20 PUSH2 0x91A DUP7 DUP3 DUP8 ADD PUSH2 0x8D1 JUMP JUMPDEST SWAP3 POP POP PUSH1 0x40 PUSH2 0x92B DUP7 DUP3 DUP8 ADD PUSH2 0x8D1 JUMP JUMPDEST SWAP2 POP POP SWAP3 POP SWAP3 POP SWAP3 JUMP JUMPDEST PUSH1 0x0 PUSH1 0x20 DUP3 DUP5 SUB SLT ISZERO PUSH2 0x947 JUMPI PUSH1 0x0 DUP1 REVERT JUMPDEST PUSH1 0x0 PUSH2 0x955 DUP5 DUP3 DUP6 ADD PUSH2 0x8D1 JUMP JUMPDEST SWAP2 POP POP SWAP3 SWAP2 POP POP JUMP JUMPDEST PUSH2 0x967 DUP2 PUSH2 0xC29 JUMP JUMPDEST DUP3 MSTORE POP POP JUMP JUMPDEST PUSH2 0x976 DUP2 PUSH2 0xC17 JUMP JUMPDEST DUP3 MSTORE POP POP JUMP JUMPDEST PUSH2 0x985 DUP2 PUSH2 0xC3B JUMP JUMPDEST DUP3 MSTORE POP POP JUMP JUMPDEST PUSH2 0x994 DUP2 PUSH2 0xC83 JUMP JUMPDEST DUP3 MSTORE POP POP JUMP JUMPDEST PUSH1 0x0 PUSH2 0x9A7 PUSH1 0x1F DUP4 PUSH2 0xAF1 JUMP JUMPDEST SWAP2 POP PUSH2 0x9B2 DUP3 PUSH2 0xD4E JUMP JUMPDEST PUSH1 0x20 DUP3 ADD SWAP1 POP SWAP2 SWAP1 POP JUMP JUMPDEST PUSH2 0x9C6 DUP2 PUSH2 0xC79 JUMP JUMPDEST DUP3 MSTORE POP POP JUMP JUMPDEST PUSH1 0x0 PUSH1 0x20 DUP3 ADD SWAP1 POP PUSH2 0x9E1 PUSH1 0x0 DUP4 ADD DUP5 PUSH2 0x95E JUMP JUMPDEST SWAP3 SWAP2 POP POP JUMP JUMPDEST PUSH1 0x0 PUSH1 0x60 DUP3 ADD SWAP1 POP PUSH2 0x9FC PUSH1 0x0 DUP4 ADD DUP7 PUSH2 0x96D JUMP JUMPDEST PUSH2 0xA09 PUSH1 0x20 DUP4 ADD DUP6 PUSH2 0x96D JUMP JUMPDEST PUSH2 0xA16 PUSH1 0x40 DUP4 ADD DUP5 PUSH2 0x9BD JUMP JUMPDEST SWAP5 SWAP4 POP POP POP POP JUMP JUMPDEST PUSH1 0x0 PUSH1 0x20 DUP3 ADD SWAP1 POP DUP2 DUP2 SUB PUSH1 0x0 DUP4 ADD MSTORE PUSH2 0xA37 DUP2 PUSH2 0x99A JUMP JUMPDEST SWAP1 POP SWAP2 SWAP1 POP JUMP JUMPDEST PUSH1 0x0 PUSH1 0x20 DUP3 ADD SWAP1 POP PUSH2 0xA53 PUSH1 0x0 DUP4 ADD DUP5 PUSH2 0x9BD JUMP JUMPDEST SWAP3 SWAP2 POP POP JUMP JUMPDEST PUSH1 0x0 PUSH1 0xC0 DUP3 ADD SWAP1 POP PUSH2 0xA6E PUSH1 0x0 DUP4 ADD DUP10 PUSH2 0x9BD JUMP JUMPDEST PUSH2 0xA7B PUSH1 0x20 DUP4 ADD DUP9 PUSH2 0x98B JUMP JUMPDEST PUSH2 0xA88 PUSH1 0x40 DUP4 ADD DUP8 PUSH2 0x9BD JUMP JUMPDEST PUSH2 0xA95 PUSH1 0x60 DUP4 ADD DUP7 PUSH2 0x9BD JUMP JUMPDEST PUSH2 0xAA2 PUSH1 0x80 DUP4 ADD DUP6 PUSH2 0x95E JUMP JUMPDEST PUSH2 0xAAF PUSH1 0xA0 DUP4 ADD DUP5 PUSH2 0x97C JUMP JUMPDEST SWAP8 SWAP7 POP POP POP POP POP POP POP JUMP JUMPDEST PUSH1 0x0 PUSH1 0x60 DUP3 ADD SWAP1 POP PUSH2 0xACF PUSH1 0x0 DUP4 ADD DUP7 PUSH2 0x9BD JUMP JUMPDEST PUSH2 0xADC PUSH1 0x20 DUP4 ADD DUP6 PUSH2 0x9BD JUMP JUMPDEST PUSH2 0xAE9 PUSH1 0x40 DUP4 ADD DUP5 PUSH2 0x9BD JUMP JUMPDEST SWAP5 SWAP4 POP POP POP POP JUMP JUMPDEST PUSH1 0x0 DUP3 DUP3 MSTORE PUSH1 0x20 DUP3 ADD SWAP1 POP SWAP3 SWAP2 POP POP JUMP JUMPDEST PUSH1 0x0 PUSH2 0xB0D DUP3 PUSH2 0xC79 JUMP JUMPDEST SWAP2 POP PUSH2 0xB18 DUP4 PUSH2 0xC79 JUMP JUMPDEST SWAP3 POP DUP3 PUSH32 0xFFFFFFFFFFFFFFFFFFFFFFFFFFFFFFFFFFFFFFFFFFFFFFFFFFFFFFFFFFFFFFFF SUB DUP3 GT ISZERO PUSH2 0xB4D JUMPI PUSH2 0xB4C PUSH2 0xCF0 JUMP JUMPDEST JUMPDEST DUP3 DUP3 ADD SWAP1 POP SWAP3 SWAP2 POP POP JUMP JUMPDEST PUSH1 0x0 PUSH2 0xB63 DUP3 PUSH2 0xC79 JUMP JUMPDEST SWAP2 POP PUSH2 0xB6E DUP4 PUSH2 0xC79 JUMP JUMPDEST SWAP3 POP DUP3 PUSH2 0xB7E JUMPI PUSH2 0xB7D PUSH2 0xD1F JUMP JUMPDEST JUMPDEST DUP3 DUP3 DIV SWAP1 POP SWAP3 SWAP2 POP POP JUMP JUMPDEST PUSH1 0x0 PUSH2 0xB94 DUP3 PUSH2 0xC79 JUMP JUMPDEST SWAP2 POP PUSH2 0xB9F DUP4 PUSH2 0xC79 JUMP JUMPDEST SWAP3 POP DUP2 PUSH32 0xFFFFFFFFFFFFFFFFFFFFFFFFFFFFFFFFFFFFFFFFFFFFFFFFFFFFFFFFFFFFFFFF DIV DUP4 GT DUP3 ISZERO ISZERO AND ISZERO PUSH2 0xBD8 JUMPI PUSH2 0xBD7 PUSH2 0xCF0 JUMP JUMPDEST JUMPDEST DUP3 DUP3 MUL SWAP1 POP SWAP3 SWAP2 POP POP JUMP JUMPDEST PUSH1 0x0 PUSH2 0xBEE DUP3 PUSH2 0xC79 JUMP JUMPDEST SWAP2 POP PUSH2 0xBF9 DUP4 PUSH2 0xC79 JUMP JUMPDEST SWAP3 POP DUP3 DUP3 LT ISZERO PUSH2 0xC0C JUMPI PUSH2 0xC0B PUSH2 0xCF0 JUMP JUMPDEST JUMPDEST DUP3 DUP3 SUB SWAP1 POP SWAP3 SWAP2 POP POP JUMP JUMPDEST PUSH1 0x0 PUSH2 0xC22 DUP3 PUSH2 0xC59 JUMP JUMPDEST SWAP1 POP SWAP2 SWAP1 POP JUMP JUMPDEST PUSH1 0x0 PUSH2 0xC34 DUP3 PUSH2 0xC59 JUMP JUMPDEST SWAP1 POP SWAP2 SWAP1 POP JUMP JUMPDEST PUSH1 0x0 DUP2 ISZERO ISZERO SWAP1 POP SWAP2 SWAP1 POP JUMP JUMPDEST PUSH1 0x0 PUSH2 0xC52 DUP3 PUSH2 0xC17 JUMP JUMPDEST SWAP1 POP SWAP2 SWAP1 POP JUMP JUMPDEST PUSH1 0x0 PUSH20 0xFFFFFFFFFFFFFFFFFFFFFFFFFFFFFFFFFFFFFFFF DUP3 AND SWAP1 POP SWAP2 SWAP1 POP JUMP JUMPDEST PUSH1 0x0 DUP2 SWAP1 POP SWAP2 SWAP1 POP JUMP JUMPDEST PUSH1 0x0 PUSH2 0xC8E DUP3 PUSH2 0xC95 JUMP JUMPDEST SWAP1 POP SWAP2 SWAP1 POP JUMP JUMPDEST PUSH1 0x0 PUSH2 0xCA0 DUP3 PUSH2 0xC59 JUMP JUMPDEST SWAP1 POP SWAP2 SWAP1 POP JUMP JUMPDEST PUSH1 0x0 PUSH2 0xCB2 DUP3 PUSH2 0xC79 JUMP JUMPDEST SWAP2 POP PUSH32 0xFFFFFFFFFFFFFFFFFFFFFFFFFFFFFFFFFFFFFFFFFFFFFFFFFFFFFFFFFFFFFFFF DUP3 EQ ISZERO PUSH2 0xCE5 JUMPI PUSH2 0xCE4 PUSH2 0xCF0 JUMP JUMPDEST JUMPDEST PUSH1 0x1 DUP3 ADD SWAP1 POP SWAP2 SWAP1 POP JUMP JUMPDEST PUSH32 0x4E487B7100000000000000000000000000000000000000000000000000000000 PUSH1 0x0 MSTORE PUSH1 0x11 PUSH1 0x4 MSTORE PUSH1 0x24 PUSH1 0x0 REVERT JUMPDEST PUSH32 0x4E487B7100000000000000000000000000000000000000000000000000000000 PUSH1 0x0 MSTORE PUSH1 0x12 PUSH1 0x4 MSTORE PUSH1 0x24 PUSH1 0x0 REVERT JUMPDEST PUSH32 0x5265656E7472616E637947756172643A207265656E7472616E742063616C6C00 PUSH1 0x0 DUP3 ADD MSTORE POP JUMP JUMPDEST PUSH2 0xD80 DUP2 PUSH2 0xC47 JUMP JUMPDEST DUP2 EQ PUSH2 0xD8B JUMPI PUSH1 0x0 DUP1 REVERT JUMPDEST POP JUMP JUMPDEST PUSH2 0xD97 DUP2 PUSH2 0xC79 JUMP JUMPDEST DUP2 EQ PUSH2 0xDA2 JUMPI PUSH1 0x0 DUP1 REVERT JUMPDEST POP JUMP INVALID LOG2 PUSH5 0x6970667358 0x22 SLT KECCAK256 0xA6 CALL 0xCB 0xED GAS DUP3 0xAC 0xC2 0x2A 0xAC PUSH32 0x14E1640272C19D63EBC95F73DB5F079B86FB22A0964736F6C63430008040033 "
				},
				"gasEstimates": {
					"creation": {
						"codeDepositCost": "709400",
						"executionCost": "infinite",
						"totalCost": "infinite"
					},
					"external": {
						"feeAccount()": "infinite",
						"feePercent()": "infinite",
						"getTotalPrice(uint256)": "infinite",
						"itemCount()": "1152",
						"items(uint256)": "infinite",
						"makeItem(address,uint256,uint256)": "infinite",
						"purchaseItem(uint256)": "infinite"
					}
				},
				"methodIdentifiers": {
					"feeAccount()": "65e17c9d",
					"feePercent()": "7fd6f15c",
					"getTotalPrice(uint256)": "ca7dd375",
					"itemCount()": "6bfb0d01",
					"items(uint256)": "bfb231d2",
					"makeItem(address,uint256,uint256)": "fa00afc7",
					"purchaseItem(uint256)": "d38ea5bf"
				}
			},
			"storageLayout": {
				"storage": [
					{
						"astId": 10,
						"contract": "contracts/MarketPlace.sol:MarketPlace",
						"label": "_status",
						"offset": 0,
						"slot": "0",
						"type": "t_uint256"
					},
					{
						"astId": 179,
						"contract": "contracts/MarketPlace.sol:MarketPlace",
						"label": "itemCount",
						"offset": 0,
						"slot": "1",
						"type": "t_uint256"
					},
					{
						"astId": 198,
						"contract": "contracts/MarketPlace.sol:MarketPlace",
						"label": "items",
						"offset": 0,
						"slot": "2",
						"type": "t_mapping(t_uint256,t_struct(Item)193_storage)"
					}
				],
				"types": {
					"t_address_payable": {
						"encoding": "inplace",
						"label": "address payable",
						"numberOfBytes": "20"
					},
					"t_bool": {
						"encoding": "inplace",
						"label": "bool",
						"numberOfBytes": "1"
					},
					"t_contract(IERC721)155": {
						"encoding": "inplace",
						"label": "contract IERC721",
						"numberOfBytes": "20"
					},
					"t_mapping(t_uint256,t_struct(Item)193_storage)": {
						"encoding": "mapping",
						"key": "t_uint256",
						"label": "mapping(uint256 => struct MarketPlace.Item)",
						"numberOfBytes": "32",
						"value": "t_struct(Item)193_storage"
					},
					"t_struct(Item)193_storage": {
						"encoding": "inplace",
						"label": "struct MarketPlace.Item",
						"members": [
							{
								"astId": 181,
								"contract": "contracts/MarketPlace.sol:MarketPlace",
								"label": "itemId",
								"offset": 0,
								"slot": "0",
								"type": "t_uint256"
							},
							{
								"astId": 184,
								"contract": "contracts/MarketPlace.sol:MarketPlace",
								"label": "nft",
								"offset": 0,
								"slot": "1",
								"type": "t_contract(IERC721)155"
							},
							{
								"astId": 186,
								"contract": "contracts/MarketPlace.sol:MarketPlace",
								"label": "tokenId",
								"offset": 0,
								"slot": "2",
								"type": "t_uint256"
							},
							{
								"astId": 188,
								"contract": "contracts/MarketPlace.sol:MarketPlace",
								"label": "price",
								"offset": 0,
								"slot": "3",
								"type": "t_uint256"
							},
							{
								"astId": 190,
								"contract": "contracts/MarketPlace.sol:MarketPlace",
								"label": "seller",
								"offset": 0,
								"slot": "4",
								"type": "t_address_payable"
							},
							{
								"astId": 192,
								"contract": "contracts/MarketPlace.sol:MarketPlace",
								"label": "sold",
								"offset": 20,
								"slot": "4",
								"type": "t_bool"
							}
						],
						"numberOfBytes": "160"
					},
					"t_uint256": {
						"encoding": "inplace",
						"label": "uint256",
						"numberOfBytes": "32"
					}
				}
			},
			"userdoc": {
				"kind": "user",
				"methods": {},
				"version": 1
			}
		}
	}
}